:100096000A25730A000A25732025750A00436F6C2A
:1000A600756D6E3A000A25732025640A004D696352
:1000B600726F20737061636520636F756E743A00AA
:1000C6000A25732025303275256325303275256360
:1000D600253032750A00557074696D653A005761AE
:1000E60074636820446F672054696D657220726579
:1000F600736574733A002573203078253032580AB8
:100106000050303A0050313A0050323A0050333AFB
:100116000050343A0050353A00506F7765722D6FB3
:100126006E2072657365740A0025732025640A00C3
:10013600496E697469616C697A696E67000A505321
:10014600207072696E74776865656C0A000A3135CD
:1001560050207072696E74776865656C0A000A31A2
:100166003250207072696E74776865656C0A000A91
:100176004E6F207072696E74776865656C0A000A46
:10018600313050207072696E74776865656C0A004C
:100196000A556E61626C6520746F206465746572C1
:1001A6006D696E65207072696E74776865656C2E10
:1001B6002044656661756C74696E6720746F2031C2
:1001C60032502E0A003078253032580A00576865BA
:1001D600656C77726974657220330A0057686565C5
:1001E6006C77726974657220350A00576865656CAC
:1001F60077726974657220360A00556E6B6E6F777A
:100206006E20576865656C777269746572206D6FCC
:1002160064656C0A00455343204820666F72206867
:10022600656C700A52656164790A00253033580A94
:1002360000576865656C7772697465722054656CE1
:1002460065747970652056657273696F6E20312EFC
:10025600332E300A666F72205354436D6963726F92
:1002660020494150313557344B36315334204D43B4
:10027600550A436F6D70696C6564206F6E204D6121
:100286007920303920323032302061742030373ACC
:1002960032303A32330A436F707972696768742074
:1002A600323031392D32303230204A696D204C6F70
:1002B6006F730A000A0A436F6E74726F6C2063686C
:1002C60061726163746572733A0A42454C203078F4
:1002D600303720202020202020207370696E732064
:1002E600746865207072696E74776865656C0A4219
:1002F6005320203078303820202020202020206EE7
:100306006F6E2D64657374727563746976652062A9
:1003160061636B73706163650A54414220307830C3
:10032600392020202020202020686F72697A6F6E85
:1003360074616C207461620A4C462020307830412A
:10034600202020202020202070617065722075708A
:10035600206F6E65206C696E650A565420203078D1
:1003660030422020202020202020706170657220DD
:100376007570206F6E65206C696E650A4352202089
:10038600307830442020202020202020726574758B
:10039600726E7320636172726961676520746F2083
:1003A6006C656674206D617267696E0A45534320F9
:1003B60030783142202020202020202073656520BF
:1003C600446961626C6F2036333020636F6D6D61F6
:1003D6006E64732062656C6F772E2E2E0A0A44694E
:1003E60061626C6F2036333020636F6D6D616E64B1
:1003F6007320656D756C617465643A0A3C455343B8
:100406003E3C4F3E202020202020202073656C6536
:1004160063747320626F6C64207072696E74696EA7
:10042600670A3C4553433E3C263E202020202020A0
:10043600202063616E63656C7320626F6C6420704C
:1004460072696E74696E670A3C4553433E3C453E8D
:10045600202020202020202073656C656374732083
:10046600636F6E74696E756F757320756E646572F1
:100476006C696E696E670A3C4553433E3C523E20AA
:100486002020202020202063616E63656C73207518
:100496006E6465726C696E696E670A3C4553433ECD
:1004A6003C583E202020202020202063616E63657A
:1004B6006C7320626F746820626F6C6420616E6476
:1004C60020756E6465726C696E696E670A3C455389
:1004D600433E3C553E202020202020202068616C91
:1004E60066206C696E6520666565640A3C45534303
:1004F6003E3C443E20202020202020207265766548
:100506007273652068616C66206C696E652066652D
:1005160065640A3C4553433E3C42533E202020201E
:100526002020206261636B737061636520312F3117
:10053600323020696E63680A3C4553433E3C4C4664
:100546003E2020202020202072657665727365206B
:100556006C696E6520666565640A3C537061636507
:100566003E20666F72206D6F72652C203C455343AA
:100576003E20746F20657869742E2E2E000A0A506C
:1005860072696E74657220636F6E74726F6C206E22
:100596006F742070617274206F66207468652044E1
:1005A6006961626C6F2036333020656D756C6174DD
:1005B600696F6E3A0A3C4553433E3C753E20202007
:1005C600202020202073656C65637473206D696339
:1005D600726F2070617065722075700A3C455343D6
:1005E6003E3C643E202020202020202073656C6540
:1005F600637473206D6963726F2070617065722019
:10060600646F776E0A3C4553433E3C623E20202091
:10061600202020202073656C656374732062726FDE
:100626006B656E20756E6465726C696E696E670ABD
:100636003C4553433E3C6C3E3C6E3E2020202020F1
:100646006175746F206C696E6566656564206F6E92
:10065600206F72206F66660A3C4553433E3C633EFC
:100666003C6E3E20202020206175746F20636172ED
:1006760072696167652072657475726E206F6E208F
:100686006F72206F66660A3C4553433E3C703E20BF
:100696002020202020202073656C65637473205011
:1006A6006963612070697463680A3C4553433E3C44
:1006B600653E202020202020202073656C65637411
:1006C6007320456C6974652070697463680A3C45DB
:1006D60053433E3C6D3E2020202020202020736581
:1006E6006C65637473204D6963726F20456C697421
:1006F600652070697463680A0A446961676E6F737E
:10070600746963732F646562756767696E673A0A11
:100716003C4553433E3C5E5A3E3C613E20202020F1
:1007260073686F772076657273696F6E20696E667F
:100736006F726D6174696F6E0A3C4553433E3C5E51
:100746005A3E3C633E2020202073686F77206375F5
:100756007272656E7420636F6C756D6E0A3C4553DC
:10076600433E3C5E5A3E3C6C3E3C6E3E2074757287
:100776006E20666C617368696E67207265642065B9
:1007860072726F72204C4544206F6E206F72206F1C
:1007960066660A3C4553433E3C5E5A3E3C6D3E20EF
:1007A6002020206D6F6E69746F7220636F6D6D759A
:1007B6006E69636174696F6E7320626574776565CF
:1007C6006E20626F617264730A3C4553433E3C5E21
:1007D6005A3E3C703E3C6E3E2073686F77207661D1
:1007E6006C7565206F6620506F7274206E202830FD
:1007F6002D35290A3C4553433E3C5E5A3E3C723EEB
:1008060020202020726573657420746865205768FF
:1008160065656C7772697465720A3C4553433E3C64
:100826005E5A3E3C753E2020202073686F77207507
:100836007074696D650A3C4553433E3C5E5A3E3CC6
:10084600733E2020202073686F77206D6963726F76
:1008560020737061636520636F756E740A3C45533F
:10086600433E3C5E5A3E3C773E2020202073686F14
:1008760077206E756D626572206F6620776174638E
:1008860068646F67207265736574730A0A436F64E0
:10089600652B4572617365206F6E20576865656CC0
:1008A60077726974657220746F67676C65732074FC
:1008B6007970657772697465722F6B6579626F619D
:0A08C6007264206D6F64650A0A0079
:10196300C10DC10EC10AC18CC10B014D00014F0055
:10197300014C01015005014B00014E00014A0001D9
:08198300510001480001490078
:1017E500AF51E48F2FF52EF52DF52C22AF51E4FCEA
:1017F500FDFEAB2FAA2EA92DA82CC3021208753702
:10180500FF7538027539377BFF7A0079962275376F
:10181500FF7538007539E49003F0E022C3E548947C
:061825000A748094802289
:03000B0002179346
:10179300C0E0C0D075D008E54B6002154B300C0E8D
:1017A30012182150028001C3928592879286300AD3
:1017B3000A12182150028001C392850548E5486446
:1017C30014701AF5480551AF51EF643C700FF55191
:1017D300054AAF4AEF643C7004F54A054ED0D0D0B9
:0217E300E032F2
:100C2C008F30E549B409004003020F5E900C3FF889
:100C3C00282873020C5A020CFC020DA5020E9D0210
:100C4C000F13020F23020F31020F5E020F51E5301A
:100C5C007003020F5E24F8601C14602D1460531492
:100C6C00605D24FE606024F2607024147070121CAD
:100C7C00067F078062D3E54C940174809480500306
:100C8C00020F5E121AF1154C22E54C8550F084C30C
:100C9C00E55095F0F532FF121927E4F531E531C333
:100CAC0095324003020F5E054C7F2012003C05314B
:100CBC0080EB300E03121A41121B637F0A8018124C
:100CCC001B637F0A8011121A41754C01E4F54F30F9
:100CDC000D03121B637F0D02003C75490122E54F89
:100CEC00FD7C00AF30121604AF3012003C054C22D4
:100CFC00E4F549E53012122D0D61080D5E0A0D94D4
:100D0C001A0D48260D5B440D4C450D98480D444F6B
:100D1C000D50520D58550D54580D64620D68630DED
:100D2C0091640D6C650D98680D766C0D846D0D7A63
:100D3C00700D8E7500000F5E434F0122534F06223B
:100D4C00434F0222534F0122E4F54F22021B2C0287
:100D5C001B7D021BB002000E434F04227549082272
:100D6C0075130A75141075500622754905227513F2
:100D7C000C7514107550052275130875140C7550EC
:100D8C000722021AD2021B0F754902227BFF7A023C
:100D9C0079BA12093275490622E4F549E530121286
:100DAC002D0DCF610DE7630E0C650E106C0E146DDE
:100DBC000E17700E1B720E24730E45750E7F770086
:100DCC00000F5E121803120932753301E533C39517
:100DDC004C4003020F5E120F6C80F17537FF7538B3
:100DEC00007539A3753A00854C3B7A00799B120F3C
:100DFC0074E533C3954C4003020F5E120F6C80F107
:100E0C007549072275490422B20B22754903227FCA
:100E1C0003121A1975C720227537FF7538007539FA
:100E2C00B385153A85163B120F5FE533C3954C40DD
:100E3C0003020F5E120F7D80F17537FF7538007558
:100E4C0039DCAF4E753A008F3B753C3AAF4A753D75
:100E5C00008F3E753F3AAF517540008F417A007953
:100E6C00C6120F74E533C3954C4003020F5E120F8C
:100E7C007D80F1121813753A00F53B120F5FE533C4
:100E8C00C3954C4003020F5E7F2012003C0533805B
:100E9C00EDE4F549E53024CF602014602A14603469
:100EAC0014603E14604824056003020F5E7537FF22
:100EBC00753801753907AF80803F7537FF7538017C
:100ECC0075390BAF9080327537FF75380175390F56
:100EDC00AFA080257537FF753801753913AFB08019
:100EEC00187537FF753801753917AFC0800B75371A
:100EFC00FF75380175391BAFC8753A008F3B7BFF06
:100F0C007A0079FC020932E4F549E53030E003D28D
:100F1C000A22C20AD28522E4F549E53030E003D238
:100F2C000D22C20D22E5306420700B7BFF7A05790F
:100F3C0083120932800BE530641B70167F0D120092
:100F4C003CE4F54922E4F549E53030E003D20E22C9
:100F5C00C20E227BFF7A0079AB1209327533012263
:100F6C007F2012003C0533227BFF120932753301BE
:090F7C00227F2012003C05332203
:100F8500E4F529F52AF52F1217EAD200F593F59421
:100F9500758AB0758C3CF589D2A9D28C7F807E2567
:100FA50012173A1219C71219F0D2AF121803120903
:100FB50032E58730E4137BFF7A01791F120932E4A9
:100FC5009003F0F05387EF801BE5C130E716121848
:100FD5001304F0753A00F53B7BFF7A01792F12096E
:100FE5003253C17F7BFF7A0179361209321217E538
:100FF5007F03121A1943C10643C120754B8CE5299D
:101005007067E54B60631217F1600B1217E57F2ED1
:1010150012003C43C110121C3EEF6031121BDE8EE4
:10102500258F26121A8BE52A14601204701FE526F7
:10103500B4211AE525B40115752A018010E5266449
:101045000145257005752A028003E4F52A121C4A1C
:10105500EF60AB121BF28E278F28121A67E52A6400
:1010650002709B852829021003754B14E54B602AF5
:101075001217F1600B1217E57F2E12003C43C110C9
:10108500121C3EEF6006121BDE121A8B121C4AEF71
:1010950060DA121BF2121A6780D27F217E011219C3
:1010A5009DE4FFFE12199D754B14E54D7016E54B39
:1010B5006012121C4AEF60F2121BF28E278F2885F0
:1010C500284D80E6E52924F0601D24F0602D14608C
:1010D5003324E16038243870457BFF7A0179431267
:1010E500093275500580477BFF7A01795312093221
:1010F50075500775130875140C80397A01796412D7
:1011050011FF802A7A0179751211FF80217BFF7A00
:1011150001798512093275500575130C80137A0112
:1011250079961211F0852938120932755006751312
:101135000A751410E54D24DB600F1460142420702B
:101145001B7BFF7A0179D3800E7BFF7A0179E280E0
:10115500067BFF7A0179F112093280127A02790051
:101165001211F0854D38120932754D06D20A7BFFF2
:101175007A02791B120932C20CD286D287D2850532
:1011850024E5247002052345237002B287121C3E14
:10119500EF6047121BDE8E258F26121B48300B0F82
:1011A5007BFF7A027931852537852638120932AFDA
:1011B50026AE251213898F2BE52B601E64F0700D6A
:1011C500E54C64017014B200121C06800DAF2B3083
:1011D5000005120C2C800312003C121C32EF600635
:1011E500121AAF120C2C43C11080947BFF120932E6
:1011F5007BFF7A0179CB753700227BFF12093275A7
:031205005006226E
:101B97007E0074002FF582EE3400F58322F9F87F7A
:091BA700C07EC67D2DFC02004643
:0300430002182B75
:10182B00C0E0C083C082C0D075D018E59A30E10506
:10183B00539AFDD20FE59A30E020539AFEAF520532
:10184B0052121B97E59BF0155420920EAF54C3EF29
:10185B009440748094805002D292D0D0D082D083A6
:03186B00D0E03298
:10173A008E308F31E4F552F553F554759A50538E25
:10174A00F7438E04AE30AF31AB07AA06121BA4EFE3
:10175A00F404F5D7AE30AF31AB07AA06E4121BA4E6
:10176A00C3E49FFFE49EFE74019DFDE49CFC78089F
:10177A001212198FD6438E10439A10439A02539A23
:09178A00FEC29243AF01D2AF226E
:0C1C3200E552655360037F01227F002211
:101AAF00E552655360FAAF530553121B97E0FF05DC
:101ABF005430920EAE54EED39480748094804002D2
:031ACF00C292229E
:08000300300FFD8F9BC20F229C
:03003900021AAFF9
:03003C00020003BC
:0E1C1600540F25E02400F582E43401F583220A
:03008B000218ADAB
:1018AD00C0E0C083C082C0D075D018E5AC30E10572
:1018BD0053ACFDD210E5AC30E01A53ACFEAFAD7EAB
:1018CD0000E5AC30E2010EAD550555ED121C16EEDE
:0D18DD00F0A3EFF0D0D0D082D083D0E03265
:1019C700E4F555F55643AC4053D1FB43D10275D5E9
:1019D700F075D4FF43D10843AC8043AC1043AC024D
:0919E70053ACFE43AF08D2AF225D
:101B48003010FDC2103080FD53ACEF53ACF7E4F514
:0B1B5800AD3010FD3080FD43AC1022CA
:101A67003010FDC2103080FD53ACEFEE30E005437F
:101A7700AC08800353ACF7EFF5AD3010FD3080FDB7
:041A870043AC10223A
:0C1C3E00E555655660037F01227F0022FF
:101BDE00E555655660FAAF560556EF121C16E0FE37
:041BEE00A3E0FF224F
:0E1C2400540F25E02420F582E43401F58322DC
:030093000218EA66
:1018EA00C0E0C083C082C0D075D018E58430E1055D
:1018FA005384FDD211E58430E01A5384FEAF857E0D
:10190A0000E58430E2010EAD570557ED121C24EEB6
:0D191A00F0A3EFF0D0D0D082D083D0E03227
:1019F000E4F557F55843844053D1BF43D12075D304
:101A0000F075D2FF43D18043848043841043840225
:091A10005384FE43AF10D2AF2253
:10199D003011FDC2113082FD5384EFEE30E005436E
:1019AD00840880035384F7EFF5853011FD3082FDF7
:0A19BD002082FD3082FD43841022D9
:101A8B003011FDC2113082FD5384EFEE30E005437F
:101A9B00840880035384F7EFF5853011FD3082FD08
:041AAB00438410223E
:0C1C4A00E557655860037F01227F0022EF
:101BF200E557655860FAAF580558EF121C24E0FE0D
:041C0200A3E0FF223A
:1015030000494B3837393F4C2316363B0C0E5728CE
:10151300302E2F2C32313335342A4E50004D004AB1
:101523003D20121B1D1E110F141F212B18241A22DC
:10153300153E17191C100D292D2613410040004F8D
:101543000001590507600A5A085D560B0904025F3A
:101553005C5203065E5B5355515854000000000073
:101563000000000000000000000000000000000078
:101573000000000000000000000000000000000068
:1015830000003A00000000450000000000000000D9
:10159300443C42430000460000000000484700006E
:1015A30020616E726D637364686C666B2C562D4795
:1015B3005546425A485029524C534E435444454988
:1015C300414A4F284D2E592C2F57394B335831321E
:1015D3003035343638372A242325A22BB1405126FF
:1015E3005D5BB3B2BAA7B6BDBC213F22603D3A5F93
:1015F3003B7871767A776A2E796267757069746F52
:011603006581
:10198B0001130A011410021500000110FF021100CF
:01199B00004B
:101BC700C2867F217E0122C3E5169513F516E5151A
:071BD7009400F515D28622EF
:101A1900EF24FE6007047008D2948008D284800401
:101A2900D284D294E4FFEFC3946E748094805003FF
:081A39000F80F3C284C2942265
:101AF100121BC712199D7F067E0012199DE4FFFE7D
:0E1B010012199DAF137E0012199D121BCE22E9
:10000E00E51645156024121BC712199D7F067E004A
:10001E0012199DE4FFFE12199D7F017E0012199D9B
:0B002E00E516151670021515D286228B
:101A4100121BC712199D7F067E0012199DE5157E96
:101A5100005407FF12199D7E00AF1612199DE4F57F
:061A610015F516D28622E5
:101C0600121BC712199D7F077E0012199DD28622CC
:10192700C286EF8513F0A485F034F5357F217E015B
:1019370012199D7F067E0012199DE5347E0054071B
:101947004480FF12199D7E00AF3512199DE535259C
:0C19570016F516E5343515F515D286227C
:10186E008F17121BC712199D7F067E0012199DE459
:10187E00FF1218A17F217E0112199D7F047E001296
:10188E00199DE5179014E393FF3395E01218A112FA
:0F189E001BCE22FE12199DAF137E0012199D2240
:101B6300121BC712199D7F057E0012199DE51444AF
:0A1B730080FF7E0012199DD2862229
:101BB000121BC712199D7F057E0012199DAF147E5E
:071BC0000012199DD28622DC
:101B2C00121BC712199D7F057E0012199DE514C367
:0C1B3C00137E004480FF12199DD2862207
:101B7D00121BC712199D7F057E0012199DE514C316
:0A1B8D0013FF7E0012199DD286227C
:101AD200121BC712199D7F057E0012199DE5141372
:0F1AE2001313541F7E004480FF12199DD28622D9
:101B0F00121BC712199D7F057E0012199DE5141334
:0D1B1F001313541FFF7E0012199DD2862261
:101604008F348C358D367E00D3EF941F7480948094
:10161400407CEF94C0748094805073C2860E12167E
:1016240093E53654066026E53464207005E53630CB
:10163400E11BE4FFFE12199D7F217E0112199D7F9B
:10164400037E0012199D7F4F7E0012199DE53630EE
:10165400E0177F017E0012199D7E01121693E51397
:1016640024FFFFE434FFFE8004AF137E0012199DB3
:10167400E5132516F516E43515F515D3E51694AAE4
:10168400E51594054006121A41754C01D286227F55
:101694002112199D7F037E0012199DE5349014E3F5
:0A16A40093FF3395E0FE12199D221A
:101389008E308F31E4F532E51012122D13FC03145F
:10139900180514430614960E140231145461148767
:1013A9006213C9FE13B4FF000014FAE53164217019
:1013B90004E530640160030214FA7510FE0214FAA0
:1013C900E5307029E53124FB601114601424F860BC
:1013D90016240B70187510030214FA7510050214FF
:1013E900FA7510060214FA75100E0214FA7510FF38
:1013F9000214FA7510310214FA7510FF74A325123C
:10140900F58274153511F583E493F5320214FA75F2
:1014190010FFE531541FB51409E4E53130E7030243
:1014290014DE7F217E0112199D7F057E0012199D10
:10143900AF31AE3012199D0214FAE53130E7067565
:1014490010610214FA7510620214FA7510FFE5139F
:10145900FD7C00D3E5319DE5309C4013E51375F023
:101469000AA4FFC3E5319FE53095F05002806BED8A
:1014790065317003EC6530707875322080737510B2
:10148900FFE51365317002E530706680437510FF22
:10149900E531547F12122D14C50614CA1614CF1D36
:1014A90014D42414D92514DE2614E32A14E82C14A0
:1014B900ED3414F24814F74F000014FA75321A800B
:1014C90030753203802B753207802675320A8021E8
:1014D900753208801C75320D8017753209801275B6
:1014E900320B800D75320C800875321B8003753202
:0A14F900F0853011853112AF322268
:030000000216AE37
:0C16AE00787FE4F6D8FD7581580216F52F
:10004600C2D5E830E70FB2D5E4C39BFBE49AFAE4E5
:1000560099F9E498F8EC30E717B2D512007C121241
:10006600E7E4C39BFBE49AFAE499F9E498F8800381
:100076001212E730D50DE4C39FFFE49EFEE49DFD1A
:04008600E49CFC22D8
:10120800EB9FF5F0EA9E42F0E99D42F0E89C45F03C
:0112180022B3
:10121900E86010ECA2E713FCED13FDEE13FEEF13EB
:04122900FFD8F022D8
:10122D00D083D082F8E4937012740193700DA3A350
:10123D0093F8740193F5828883E473740293686064
:06124D00EFA3A3A380DF64
:1008D000E5432437F8E605432278343008027837B8
:1008E000E475F0011213790212532001EB7F2ED22E
:1008F000018018EF540F2490D43440D4FF30050BFE
:10090000EF24BFB41A0050032461FFE544600215D0
:10091000440547E5477002054630080D7834E47514
:10092000F001121379EF02129902003C7403D2080D
:100930008003E4C208F5438B348A358936E4F544F4
:10094000F546F547E54460077F2012090B80F575F1
:1009500045FFC202C201C203C204C206C207C209E5
:100960001208D9FF700D3008057F0012091CAF472F
:10097000AE4622B4255FC2D5C2051208D9FF24D0E5
:10098000B40A00501A75F00A784430D50508B6FF4D
:100990000106C6A426F620D5047002D20480D9240C
:1009A000CFB41A00EF5004C2E5D205020B1CD202EC
:1009B00080C6D20180C0D20380BCD2D580BAD20614
:1009C00080B47F2012090B2003077401B544004056
:1009D000F11208D0FF12090B020944D209D2078094
:1009E000951208D0FB1208D0FA1208D0F94A4B70C1
:1009F0000679ED7A0B7BFF20032EE544602A7E000A
:100A00008E8275830012126C60060EEE654570F0E2
:100A1000C2D5EBC0E0EAC0E0E9C0E0EE120B63D063
:100A2000E0F9D0E0FAD0E0FB121253FF60AAEBC06D
:100A3000E0EAC0E0E9C0E012090BD0E02401F9D0FF
:100A4000E03400FAD0E0FBE5450460DCD545D98010
:100A5000877BFF7A0B795FD203809C7910800279C3
:100A600008C207C2098008D2D5790A8004790AC26F
:100A7000D5E545047002F545E4FAFDFEFF1208D005
:100A8000FC7B082002131208D0FD7B1030010A12F3
:100A900008D0FE1208D0FF7B20EC3382D592D550CF
:100AA00013C3E43001069FFFE49EFEE42002039D91
:100AB000FDE49CFCE4CBF8C202EC700CCFCECDCCB4
:100AC000E824F8F870F38017C3EF33FFEE33FEED40
:100AD00033FDEC33FCEB33FB994002FB0FD8E9EB21
:100AE000300205F8D0E0C448B202C0E00AEC4D4E36
:100AF0004F78207B0070C2EAB5450040BCC0E012D0
:100B00000B65D0F0D0E0200204C4C0E0C4B202C043
:100B1000F01208F4D0F0D5F0EB02094412122D09BE
:100B2000E1530A5B5809B24C09AE420A5F4F0A67AB
:0F0B3000440A674909C7430A6D550A51460A51DD
:100B3F00450A51470C0D5009B62D09BA2E09DD2B68
:100B4F0009BE2309DB200BF62A097648000009D5D8
:100B5F003F3F3F00790AA2D5200414300609B9108F
:100B6F00020404B9080104A2D52007025001042091
:100B7F0003689203B544005034C0E07F203004195D
:100B8F007F30A20372077206500F120BBCC203C252
:100B9F0007C206C2097F30800F300603E9C0E0129A
:100BAF00090B300603D0E0F9D0E0B544CC3006177E
:100BBF007F30B9100C12090B7F583005077F7880F2
:100BCF0003B9080312090B3003057F2D02090B7FB0
:100BDF00202009F87F2B2007F322920380CF286E65
:100BEF00756C6C2900D2021208D03002F8C202785C
:100BFF004430D50108F60209762D504349581208A2
:100C0F00D02403B405004001E4900C08931208FCB3
:0D0C1F00743A1208FCD204754404020A5B0A
:1016BA00020F85E493A3F8E493A34003F68001F2B2
:1016CA0008DFF48029E493A3F85407240CC8C33331
:1016DA00C4540F4420C8834004F456800146F6DF00
:1016EA00E4800B0102040810204080901963E47E14
:1016FA00019360BCA3FF543F30E509541FFEE493F5
:10170A00A360010ECF54C025E060A840B8E493A3BB
:10171A00FAE493A3F8E493A3C8C582C8CAC583CAE6
:10172A00F0A3C8C582C8CAC583CADFE9DEE780BE9E
:01199C00004A
:10125300BB010689828A83E0225002E722BBFE0299
:09126300E32289828A83E49322CC
:10126C00BB010CE58229F582E5833AF583E0225037
:10127C0006E92582F8E622BBFE06E92582F8E22281
:0D128C00E58229F582E5833AF583E493229B
:10129900BB010689828A83F0225002F722BBFE0134
:0212A900F3222E
:1012AB0075F008758200EF2FFFEE33FECD33CDCCFA
:1012BB0033CCC58233C5829BED9AEC99E58298407D
:1012CB000CF582EE9BFEED9AFDEC99FC0FD5F0D65A
:1012DB00E4CEFBE4CDFAE4CCF9A88222B800C1B984
:1012EB000059BA002DEC8BF084CFCECDFCE5F0CBC2
:1012FB00F97818EF2FFFEE33FEED33FDEC33FCEBFB
:10130B0033FB10D703994004EB99FB0FD8E5E4F9B5
:10131B00FA227818EF2FFFEE33FEED33FDEC33FCA2
:10132B00C933C910D7059BE99A4007EC9BFCE99A96
:10133B00F90FD8E0E4C9FAE4CCFB2275F010EF2FDB
:10134B00FFEE33FEED33FDCC33CCC833C810D707DB
:10135B009BEC9AE899400AED9BFDEC9AFCE899F816
:0E136B000FD5F0DAE4CDFBE4CCFAE4C8F922A9
:10137900FAE6FB0808E6F925F0F618E6CA3AF62275
:00000001FF
