:100096000A25730A000A25732025750A00436F6C2A
:1000A600756D6E3A000A25732025640A004D696352
:1000B600726F20737061636520636F756E743A00AA
:1000C6000A25732025303275256325303275256360
:1000D600253032750A00557074696D653A005761AE
:1000E60074636820446F672054696D657220726579
:1000F600736574733A002573203078253032580AB8
:100106000050303A0050313A0050323A0050333AFB
:100116000050343A0050353A00506F7765722D6FB3
:100126006E2072657365740A0025732025640A00C3
:10013600536F6674776172652072657365740A0021
:10014600496E697469616C697A696E67000A505311
:10015600207072696E74776865656C0A000A3135BD
:1001660050207072696E74776865656C0A000A3192
:100176003250207072696E74776865656C0A000A81
:100186004E6F207072696E74776865656C0A000A36
:10019600313050207072696E74776865656C0A003C
:1001A6000A556E61626C6520746F206465746572B1
:1001B6006D696E65207072696E74776865656C2E00
:1001C6002044656661756C74696E6720746F2031B2
:1001D60032502E0A003078253032580A00455343F3
:1001E600204820666F722068656C700A52656164EB
:1001F600790A00253033580A00576865656C7772AE
:10020600697465722054656C6574797065205665ED
:100216007273696F6E20312E332E300A666F72202C
:100226005354436D6963726F2049415031355734D9
:100236004B36315334204D43550A436F6D70696C0C
:100246006564206F6E204E6F762031352032303255
:10025600302061742030363A30343A30300A436FF9
:100266007079726967687420323031392D323032D4
:1002760030204A696D204C6F6F730A000A0A436F7B
:100286006E74726F6C2063686172616374657273F9
:100296003A0A42454C203078303720202020202052
:1002A60020207370696E7320746865207072696EA1
:1002B60074776865656C0A425320203078303820A0
:1002C600202020202020206E6F6E2D6465737472AE
:1002D600756374697665206261636B7370616365CB
:1002E6000A54414220307830392020202020202016
:1002F60020686F72697A6F6E74616C207461620A2D
:100306004C462020307830412020202020202020FC
:100316007061706572207570206F6E65206C696EF5
:10032600650A565420203078304220202020202094
:1003360020207061706572207570206F6E65206C6C
:10034600696E650A435220203078304420202020F0
:100356002020202072657475726E7320636172723C
:100366006961676520746F206C656674206D6172C3
:1003760067696E0A45534320307831422020202099
:100386002020202073656520446961626C6F2036E9
:10039600333020636F6D6D616E64732062656C6FC0
:1003A600772E2E2E0A0A446961626C6F203633302E
:1003B60020636F6D6D616E647320656D756C61741D
:1003C60065643A0A3C4553433E3C4F3E202020207C
:1003D6002020202073656C6563747320626F6C64E3
:1003E600207072696E74696E670A3C4553433E3CE1
:1003F600263E202020202020202063616E63656C2D
:100406007320626F6C64207072696E74696E670A1D
:100416003C4553433E3C453E2020202020202020C2
:1004260073656C6563747320636F6E74696E756F44
:10043600757320756E6465726C696E696E670A3CC9
:100446004553433E3C523E2020202020202020635E
:10045600616E63656C7320756E6465726C696E6936
:100466006E670A3C4553433E3C583E2020202020E0
:1004760020202063616E63656C7320626F74682050
:10048600626F6C6420616E6420756E6465726C695F
:100496006E696E670A3C4553433E3C553E2020201C
:1004A600202020202068616C66206C696E652066BD
:1004B6006565640A3C4553433E3C443E202020206B
:1004C60020202020726576657273652068616C66EF
:1004D600206C696E6520666565640A3C4553433E3B
:1004E6003C42533E202020202020206261636B7313
:1004F6007061636520312F31323020696E63680A7E
:100506003C4553433E3C4C463E20202020202020A4
:1005160072657665727365206C696E6520666565C1
:10052600640A3C53706163653E20666F72206D6F8E
:1005360072652C203C4553433E20746F20657869D4
:10054600742E2E2E000A0A5072696E74657220632C
:100556006F6E74726F6C206E6F742070617274208F
:100566006F662074686520446961626C6F2036335B
:100576003020656D756C6174696F6E3A0A3C45533F
:10058600433E3C753E202020202020202073656CB1
:1005960065637473206D6963726F20706170657234
:1005A6002075700A3C4553433E3C643E2020202083
:1005B6002020202073656C65637473206D696372F7
:1005C6006F20706170657220646F776E0A3C4553C8
:1005D600433E3C623E202020202020202073656C74
:1005E600656374732062726F6B656E20756E6465E9
:1005F600726C696E696E670A3C4553433E3C6C3EBD
:100606003C6E3E20202020206175746F206C696E40
:100616006566656564206F6E206F72206F66660A78
:100626003C4553433E3C633E3C6E3E20202020200A
:100636006175746F206361727269616765207265A6
:100646007475726E206F6E206F72206F66660A3C3C
:100656004553433E3C703E2020202020202020731E
:10066600656C656374732050696361207069746397
:10067600680A3C4553433E3C653E2020202020200E
:10068600202073656C6563747320456C69746520FE
:1006960070697463680A3C4553433E3C6D3E2020B6
:1006A60020202020202073656C65637473204D69BB
:1006B60063726F20456C6974652070697463680A9B
:1006C6000A446961676E6F73746963732F64656248
:1006D600756767696E673A0A3C4553433E3C5E5A06
:1006E6003E3C613E2020202073686F77207665723D
:1006F60073696F6E20696E666F726D6174696F6E75
:100706000A3C4553433E3C5E5A3E3C633E20202015
:100716002073686F772063757272656E7420636FDD
:100726006C756D6E0A3C4553433E3C5E5A3E3C6CCE
:100736003E3C6E3E207475726E20666C617368690D
:100746006E6720726564206572726F72204C454434
:10075600206F6E206F72206F66660A3C4553433EDB
:100766003C5E5A3E3C6D3E202020206D6F6E6974C3
:100776006F7220636F6D6D756E69636174696F6EFC
:1007860073206265747765656E20626F617264734B
:100796000A3C4553433E3C5E5A3E3C703E3C6E3EF0
:1007A6002073686F772076616C7565206F662050C0
:1007B6006F7274206E2028302D35290A3C4553432C
:1007C6003E3C5E5A3E3C723E202020207265736598
:1007D600742074686520576865656C7772697465FE
:1007E600720A3C4553433E3C5E5A3E3C753E2020D1
:1007F600202073686F7720757074696D650A3C45B3
:1008060053433E3C5E5A3E3C733E20202020736894
:100816006F77206D6963726F207370616365206303
:100826006F756E740A3C4553433E3C5E5A3E3C77B8
:100836003E2020202073686F77206E756D6265728A
:10084600206F66207761746368646F6720726573D2
:100856006574730A0A436F64652B4572617365207C
:100866006F6E20576865656C77726974657220745F
:100876006F67676C657320747970657772697465E4
:10088600722F6B6579626F617264206D6F64650AA1
:020896000A0056
:10194900C10DC10EC10AC18CC10B014F00014C016F
:10195900015005014D00014B00014E00014A0001F3
:08196900510001480001490092
:03000B000217BF1A
:1017BF00C0E0C0D075D008E54B6002154B300C145B
:1017CF00C3E548940A7480948050028001C39285C7
:1017DF0092879286300A10C3E548940A74809480E9
:1017EF0050028001C392850548E5486414701AF5CC
:1017FF00480551AF51EF643C700FF551054AAF4AA0
:0E180F00EF643C7004F54A054ED0D0D0E032B4
:100898008F30E549B409004003020C129008ABF808
:1008A8002828730208C6020968020A11020B5102BD
:1008B8000BC7020BD7020BE5020C12020C05E53040
:1008C8007003020C1224F8601C14602D1460531479
:1008D800605D24FE606024F2607024147070121B46
:1008E800FD7F078062D3E54C9401748094805003A7
:1008F800020C12121983154C22E54C8550F084C362
:10090800E55095F0F532FF120046E4F531E531C3C4
:1009180095324003020C12054C7F2012003F05312E
:1009280080EB300E03121A06121B8E7F0A801812F3
:100938001B8E7F0A8011121A06754C01E4F54F30A0
:100948000D03121B8E7F0D02003F75490122E54FF2
:10095800FD7C00AF30121605AF3012003F054C2267
:10096800E4F549E5301212FC09CD0809CA0A0A0063
:100978001A09B42609C74409B8450A044809B04FFA
:1009880009BC5209C45509C05809D06209D4630981
:10099800FD6409D8650A046809E26C09F06D09E686
:1009A8007009FA7500000C12434F0122534F0622BA
:1009B800434F0222534F0122E4F54F22021B330218
:1009C8001BAB021BE302000E434F042275490822A9
:1009D80075130A751410755006227549052275138A
:1009E8000C7514107550052275130875140C755084
:1009F8000722021AF1021B13754902227BFF7A02B1
:100A08007982120C7575490622E4F549E53012120F
:100A1800FC0A3B610A63630A91650A956C0A996D41
:100A28000A9C700AA0720AAF730ADD750B20770062
:100A3800000C127537FF7538017539FF7BFF7A0096
:100A48007996120C75753301E533C3954C40030252
:100A58000C127F2012003F053380ED7537FF753883
:100A6800007539A3753A00854C3B7BFF7A00799B6A
:100A7800120C75753301E533C3954C4003020C1213
:100A88007F2012003F053380ED7549072275490420
:100A980022B20B22754903227F03121A81900EF1AC
:100AA8007455F075C720227537FF7538007539B34E
:100AB80085153A85163B7BFF7A0079AB120C757564
:100AC8003301E533C3954C4003020C127F2012001A
:100AD8003F053380ED7537FF7538007539DCAF4E4B
:100AE800753A008F3B753C3AAF4A753D008F3E75AD
:100AF8003F3AAF517540008F417BFF7A0079C612AB
:100B08000C75753301E533C3954C4003020C127F15
:100B18002012003F053380ED7537FF7538007539B1
:100B2800E4900EF0E0753A00F53B7BFF7A0079AB74
:100B3800120C75753301E533C3954C4003020C1252
:100B48007F2012003F053380EDE4F549E53024CFDE
:100B5800602014602A14603414603E146048240530
:100B68006003020C127537FF753801753907AF80BD
:100B7800803F7537FF75380175390BAF9080327536
:100B880037FF75380175390FAFA080257537FF75A8
:100B98003801753913AFB080187537FF753801758E
:100BA8003917AFC0800B7537FF75380175391BAF22
:100BB800C8753A008F3B7BFF7A0079FC020C75E41C
:100BC800F549E53030E003D20A22C20AD28522E490
:100BD800F549E53030E003D20D22C20D22E530643C
:100BE80020700B7BFF7A05794B120C75800BE53072
:100BF800641B70167F0D12003FE4F54922E4F549A5
:0B0C0800E53030E003D20E22C20E22C5
:100F6F00E4F529F52FF52EF52DF52CD200F593F597
:100F7F0094758AB0758C3CF589D2A9D28C7F807E0E
:100F8F0025FDFC121754121A2F121A58D2AF7537AB
:100F9F00FF7538017539FF7BFF7A007996120C7552
:100FAF00E58730E4157BFF7A01791F120C75E49009
:100FBF000EF0F0A3F05387EF803DE5C130E72275C7
:100FCF0037FF7538007539E4900EF0E004F0753A8C
:100FDF0000F53B7BFF7A01792F120C7553C17F808F
:100FEF0016900EF1E06455700E7BFF7A0179361280
:100FFF000C75E4900EF1F07BFF7A017946120C75B7
:10100F00AF51E48F2FF52EF52DF52C7F03121A819A
:10101F0043C10643C120754B8CE54D60030210B3ED
:10102F00E54B70030210B3AF51E4FCFDFEAB2FAAEA
:10103F002EA92DA82CC31212D86013AF51E48F2FF5
:10104F00F52EF52DF52C7F2E12003F43C110121CEB
:10105F001CEF6031121B528E258F26121ACDE529F7
:10106F0014601204701FE526B4211AE525B401158A
:10107F007529018010E52664014525700575290243
:10108F008003E4F529121C28EF608E121B708E2747
:10109F008F28121AA9E529640260030210288528F7
:1010AF004D021028754B14E54B6041AF51E4FCFD28
:1010BF00FEAB2FAA2EA92DA82CC31212D86013AFE6
:1010CF0051E48F2FF52EF52DF52C7F2E12003F4377
:1010DF00C110121C1CEF6006121B52121ACD121CEB
:1010EF0028EF60C3121B70121AA980BBE54D24F0C4
:1010FF00601D24F0602D14603824E16045243870A1
:10110F00557BFF7A017953120C75755005802E7B34
:10111F00FF7A017963120C757550077513087514F2
:10112F000C80567BFF7A017974120C75755006800E
:10113F000C7BFF7A017985120C7575500675130AB1
:10114F00800F7BFF7A017995120C75755005751319
:10115F000C75141080237BFF7A0179A6120C757B16
:10116F00FF7A0179DB753700854D38120C75755094
:10117F000675130A751410D20A7BFF7A0179E312F0
:10118F000C75C20CD286D287D2850524E524700255
:10119F00052345237005B28743C110121C1CEF6055
:1011AF004A121B528E258F26121BC8300B0F7BFF46
:1011BF007A0179F9852537852638120C75AF26AE59
:1011CF002512138A8F2AE52A602164F07010E54CEE
:1011DF0064017017B200121B33121BAB800DAF2AC4
:1011EF00300005120898800312003F121C10EF60A8
:0B11FF00991219B08F2B120898808FF6
:0300430002186F31
:10186F00C0E0C083C082C0D075D018E59A30E105C2
:10187F00539AFDD20FE59A30E029539AFEAF5205E5
:10188F00527E0074002FF582EE3400F583E59BF055
:10189F00155420920EAF54C3EF944074809480502F
:0C18AF0002D292D0D0D082D083D0E032A0
:101754008F338E328D318C30E4F552F553F5547558
:101764009A50538EF7438E04AB33AA32A931A83072
:101774007FC07EC67D2DFC121246EFF404F5D7AB74
:1017840033AA32A931A8307FC07EC67D2D7C0012D9
:101794001246C3E49FFFE49EFE74019DFDE49CFC9D
:1017A40078081212E98FD6438E10439A10439A0296
:0B17B400539AFEC29243AF01D2AF2255
:0C1C1000E552655360037F01227F002233
:1019B000E552655360FAAF5305537E0074002FF56E
:1019C00082EE3400F583E0FF055430920EAE54EE03
:0C19D000D39480748094804002C2922264
:08000300300FFD8F9BC20F229C
:03003C000219B0F6
:03003F00020003B9
:1015040000494B3837393F4C2316363B0C0E5728CD
:10151400302E2F2C32313335342A4E50004D004AB0
:101524003D20121B1D1E110F141F212B18241A22DB
:10153400153E17191C100D292D2613410040004F8C
:101544000001590507600A5A085D560B0904025F39
:101554005C5203065E5B5355515854000000000072
:101564000000000000000000000000000000000077
:101574000000000000000000000000000000000067
:1015840000003A00000000450000000000000000D8
:10159400443C42430000460000000000484700006D
:1015A40020616E726D637364686C666B2C562D4794
:1015B4005546425A485029524C534E435444454987
:1015C400414A4F284D2E592C2F57394B335831321D
:1015D4003035343638372A242325A22BB1405126FE
:1015E4005D5BB3B2BAA7B6BDBC213F22603D3A5F92
:1015F4003B7871767A776A2E796267757069746F51
:011604006580
:1019710001130A011410021500000110FF021100E9
:011981000065
:101A8100EF24FE6007047008D2948008D284800499
:101A9100D284D294E4FFEFC3946E74809480500397
:081AA1000F80F3C284C29422FD
:10198300C2867F217E011219DC7F067E001219DCDC
:10199300E4FFFE1219DCAF137E001219DCC3E51657
:0D19A3009513F516E5159400F515D2862272
:10000E00E51645156027C2867F217E011219DC7F19
:10001E00067E001219DCE4FFFE1219DC7F017E0061
:0E002E001219DCE516151670021515D2862281
:101A0600C2867F217E011219DC7F067E001219DC58
:101A1600E5157E005407FF1219DC7E00AF16121979
:091A2600DCE4F515F516D2862268
:101BFD00C2867F217E011219DC7F077E001219DC5F
:031C0D00D286225A
:10004600C286EF8513F0A485F034F5357F217E0155
:100056001219DC7F067E001219DCE5347E00540797
:100066004480FF1219DC7E00AF351219DCE5352518
:0C00760016F516E5343515F515D2862276
:10181D008F17C2867F217E011219DC7F067E001292
:10182D0019DCE4FFFE1219DCAF137E001219DC7F08
:10183D00217E011219DC7F047E001219DCE5179060
:10184D0014E493FF3395E0FE1219DCAF137E001202
:10185D0019DCC3E5169513F516E5159400F515D2AB
:02186D008622D1
:101B8E00C2867F217E011219DC7F057E001219DCD0
:0D1B9E00E5144480FF7E001219DCD286227F
:101BE300C2867F217E011219DC7F057E001219DC7B
:0A1BF300AF147E001219DCD2862226
:101B3300C2867F217E011219DC7F057E001219DC2B
:0F1B4300E514C3137E004480FF1219DCD2862202
:101BAB00C2867F217E011219DC7F057E001219DCB3
:0D1BBB00E514C313FF7E001219DCD2862250
:101AF100C2867F217E011219DC7F057E001219DC6E
:101B0100E514131313541F7E004480FF1219DCD215
:021B110086222A
:101B1300C2867F217E011219DC7F057E001219DC4B
:101B2300E514131313541FFF7E001219DCD286220F
:101605008F348C358D367E00D3EF941F7480948093
:1016150050030216C7EF94C07480948040030216ED
:10162500C7C2867F210E1219DC7F037E001219DCEA
:10163500E5349014E493FF3395E0FE1219DCE536AA
:1016450054066026E53464207005E53630E11BE478
:10165500FFFE1219DC7F217E011219DC7F037E005B
:101665001219DC7F4F7E001219DCE53630E02E7F43
:10167500017E001219DC7F217E011219DC7F037EB9
:10168500001219DCE5349014E493FF3395E0FE1263
:1016950019DCE51324FFFFE434FFFE8004AF137E5D
:1016A500001219DCE5132516F516E43515F515D3E5
:1016B500E51694AAE51594054006121A06754C011F
:0316C500D28622A8
:10138A008E308F31E4F532E5101212FC13FD03148E
:10139A00190514440614970E140331145561148860
:1013AA006213CAFE13B5FF000014FBE53164217015
:1013BA0004E530640160030214FB7510FE0214FB9D
:1013CA00E5307029E53124FB601114601424F860BB
:1013DA0016240B70187510030214FB7510050214FD
:1013EA00FB7510060214FB75100E0214FB7510FF34
:1013FA000214FB7510310214FB7510FF74A4251238
:10140A00F58274153511F583E493F5320214FB75F0
:10141A0010FFE531541FB51409E4E53130E7030242
:10142A0014DF7F217E011219DC7F057E001219DC90
:10143A00AF31AE301219DC0214FBE53130E7067524
:10144A0010610214FB7510620214FB7510FFE5139C
:10145A00FD7C00D3E5319DE5309C4013E51375F022
:10146A000AA4FFC3E5319FE53095F05002806BED89
:10147A0065317003EC6530707875322080737510B1
:10148A00FFE51365317002E530706680437510FF21
:10149A00E531547F1212FC14C60614CB1614D01D63
:1014AA0014D52414DA2514DF2614E42A14E92C149A
:1014BA00EE3414F34814F84F000014FB75321A8006
:1014CA0030753203802B753207802675320A8021E7
:1014DA00753208801C75320D8017753209801275B5
:1014EA00320B800D75320C800875321B8003753201
:0A14FA00F0853011853112AF322267
:03008B000218BB9D
:1018BB00C0E0C083C082C0D075D018E5AC30E10564
:1018CB0053ACFDD210E5AC30E02453ACFEAFAD7E93
:1018DB0000E5AC30E2010EAD550555ED540F25E09A
:1018EB002400F582E43401F583EEF0A3EFF0D0D0C1
:0718FB00D082D083D0E0325F
:101A2F00E4F555F55643AC4053D1FB43D10275D580
:101A3F00F075D4FF43D10843AC8043AC1043AC02E4
:091A4F0053ACFE43AF08D2AF22F4
:101BC8003010FDC2103080FD53ACEF53ACF7E4F594
:0B1BD800AD3010FD3080FD43AC10224A
:101AA9003010FDC2103080FD53ACEFEE30E005433D
:101AB900AC08800353ACF7EFF5AD3010FD3080FD75
:041AC90043AC1022F8
:0C1C1C00E555655660037F01227F002221
:101B5200E555655660FAAF560556EF540F25E02459
:0E1B620000F582E43401F583E0FEA3E0FF22EB
:030093000219024D
:10190200C0E0C083C082C0D075D018E58430E10544
:101912005384FDD211E58430E0245384FEAF857EEA
:1019220000E58430E2010EAD570557ED540F25E076
:101932002420F582E43401F583EEF0A3EFF0D0D059
:07194200D082D083D0E03217
:101A5800E4F557F55843844053D1BF43D12075D39B
:101A6800F075D2FF43D180438480438410438402BD
:091A78005384FE43AF10D2AF22EB
:1019DC003011FDC2113082FD5384EFEE30E005432F
:1019EC00840880035384F7EFF5853011FD3082FDB8
:0A19FC002082FD3082FD438410229A
:101ACD003011FDC2113082FD5384EFEE30E005433D
:101ADD00840880035384F7EFF5853011FD3082FDC6
:041AED0043841022FC
:0C1C2800E557655860037F01227F002211
:101B7000E557655860FAAF580558EF540F25E02433
:0E1B800020F582E43401F583E0FEA3E0FF22AD
:030000000216C81D
:0C16C800787FE4F6D8FD75815802170FFA
:10120A0075F008758200EF2FFFEE33FECD33CDCC9B
:10121A0033CCC58233C5829BED9AEC99E58298401E
:10122A000CF582EE9BFEED9AFDEC99FC0FD5F0D6FB
:10123A00E4CEFBE4CDFAE4CCF9A88222B800C1B925
:10124A000059BA002DEC8BF084CFCECDFCE5F0CB63
:10125A00F97818EF2FFFEE33FEED33FDEC33FCEB9C
:10126A0033FB10D703994004EB99FB0FD8E5E4F957
:10127A00FA227818EF2FFFEE33FEED33FDEC33FC44
:10128A00C933C910D7059BE99A4007EC9BFCE99A38
:10129A00F90FD8E0E4C9FAE4CCFB2275F010EF2F7D
:1012AA00FFEE33FEED33FDCC33CCC833C810D7077D
:1012BA009BEC9AE899400AED9BFDEC9AFCE899F8B8
:0E12CA000FD5F0DAE4CDFBE4CCFAE4C8F9224B
:1012D800EB9FF5F0EA9E42F0E99D42F0E89C45F06C
:0112E80022E3
:1012E900E8600FECC313FCED13FDEE13FEEF13FFE3
:0312F900D8F12207
:1012FC00D083D082F8E4937012740193700DA3A381
:10130C0093F8740193F5828883E473740293686094
:06131C00EFA3A3A380DF94
:100C1300E5432437F8E60543227834300802783771
:100C2300E475F00112137A0213222001EB7F2ED216
:100C3300018018EF540F2490D43440D4FF30050BB7
:100C4300EF24BFB41A0050032461FFE5446002158A
:100C5300440547E5477002054630080D7834E475CE
:100C6300F00112137AEF02136802003F7403D208F3
:100C73008003E4C208F5438B348A358936E4F544AE
:100C8300F546F547E54460077F20120C4E80F57565
:100C930045FFC202C201C203C204C206C207C2099F
:100CA300120C1CFF700D3008057F00120C5FAF475C
:100CB300AE4622B4255FC2D5C205120C1CFF24D058
:100CC300B40A00501A75F00A784430D50508B6FF07
:100CD3000106C6A426F620D5047002D20480D924C6
:100CE300CFB41A00EF5004C2E5D205020E5FD20260
:100CF30080C6D20180C0D20380BCD2D580BAD206CE
:100D030080B47F20120C4E2003077401B5440040C9
:100D1300F1120C13FF120C4E020C87D209D207807A
:100D230095120C13FB120C13FA120C13F94A4B70A5
:100D33000679307A0F7BFF20032EE544602A7E007C
:100D43008E8275830012133B60060EEE654570F0CC
:100D5300C2D5EBC0E0EAC0E0E9C0E0EE120EA6D0D7
:100D6300E0F9D0E0FAD0E0FB121322FF60AAEBC057
:100D7300E0EAC0E0E9C0E0120C4ED0E02401F9D073
:100D8300E03400FAD0E0FBE5450460DCD545D980CA
:100D9300877BFF7A0E79A2D203809C791080027937
:100DA30008C207C2098008D2D5790A8004790AC229
:100DB300D5E545047002F545E4FAFDFEFF120C1378
:100DC300FC7B08200213120C13FD7B1030010A1266
:100DD3000C13FE120C13FF7B20EC3382D592D550FB
:100DE30013C3E43001069FFFE49EFEE42002039D4B
:100DF300FDE49CFCE4CBF8C202EC700CCFCECDCC6E
:100E0300E824F8F870F38017C3EF33FFEE33FEEDF9
:100E130033FDEC33FCEB33FB994002FB0FD8E9EBDA
:100E2300300205F8D0E0C448B202C0E00AEC4D4EEF
:100E33004F78207B0070C2EAB5450040BCC0E01289
:100E43000EA8D0F0D0E0200204C4C0E0C4B202C0B7
:100E5300F0120C37D0F0D5F0EB020C871212FC0D18
:100E630024530D9E580CF54C0CF1420DA24F0DAAC4
:0F0E7300440DAA490D0A430DB0550D94460D9438
:100E8200450D94470F50500CF92D0CFD2E0D202BC3
:100E92000D01230D1E200F392A0CB94800000D1830
:100EA2003F3F3F00790AA2D5200414300609B91049
:100EB200020404B9080104A2D5200702500104204B
:100EC20003689203B544005034C0E07F2030041917
:100ED2007F30A20372077206500F120EFFC203C2C6
:100EE20007C206C2097F30800F300603E9C0E01254
:100EF2000C4E300603D0E0F9D0E0B544CC300617F2
:100F02007F30B9100C120C4E7F583005077F788065
:100F120003B90803120C4E3003057F2D020C4E7FDD
:100F2200202009F87F2B2007F322920380CF286E1E
:100F3200756C6C2900D202120C133002F8C20278CE
:100F42004430D50108F6020CB92D50434958120C11
:100F5200132403B405004001E4900F4B93120C3F9D
:0D0F6200743A120C3FD204754404020D9E37
:1016D400020F6FE493A3F8E493A34003F68001F2AE
:1016E40008DFF48029E493A3F85407240CC8C33317
:1016F400C4540F4420C8834004F456800146F6DFE6
:10170400E4800B0102040810204080901949E47E13
:10171400019360BCA3FF543F30E509541FFEE493DA
:10172400A360010ECF54C025E060A840B8E493A3A1
:10173400FAE493A3F8E493A3C8C582C8CAC583CACC
:10174400F0A3C8C582C8CAC583CADFE9DEE780BE84
:011982000064
:10132200BB010689828A83E0225002E722BBFE02C9
:09133200E32289828A83E49322FC
:10133B00BB010CE58229F582E5833AF583E0225067
:10134B0006E92582F8E622BBFE06E92582F8E222B1
:0D135B00E58229F582E5833AF583E49322CB
:10136800BB010689828A83F0225002F722BBFE0164
:02137800F3225E
:10137A00FAE6FB0808E6F925F0F618E6CA3AF62274
:00000001FF
