:100096000A25730A000A25732025750A00436F6C2A
:1000A600756D6E3A000A25732025640A004D696352
:1000B600726F20737061636520636F756E743A00AA
:1000C6000A25732025303275256325303275256360
:1000D600253032750A00557074696D653A005761AE
:1000E60074636820446F672054696D657220726579
:1000F600736574733A002573203078253032580AB8
:100106000050303A0050313A0050323A0050333AFB
:100116000050343A0050353A00506F7765722D6FB3
:100126006E2072657365740A0025732025640A00C3
:10013600536F6674776172652072657365740A0021
:10014600496E697469616C697A696E67000A505311
:10015600207072696E74776865656C0A000A3135BD
:1001660050207072696E74776865656C0A000A3192
:100176003250207072696E74776865656C0A000A81
:100186004E6F207072696E74776865656C0A000A36
:10019600313050207072696E74776865656C0A003C
:1001A6000A556E61626C6520746F206465746572B1
:1001B6006D696E65207072696E74776865656C2E00
:1001C6002044656661756C74696E6720746F2031B2
:1001D60032502E0A003078253032580A00455343F3
:1001E600204820666F722068656C700A52656164EB
:1001F600790A00253033580A00576865656C7772AE
:10020600697465722054656C6574797065205665ED
:100216007273696F6E20312E332E310A666F72202B
:100226005354436D6963726F2049415031355734D9
:100236004B36315334204D43550A436F6D70696C0C
:100246006564206F6E204D61792033312032303263
:10025600312061742031313A35393A35300A436FED
:100266007079726967687420323031392D323032D4
:1002760030204A696D204C6F6F730A000A0A436F7B
:100286006E74726F6C2063686172616374657273F9
:100296003A0A42454C203078303720202020202052
:1002A60020207370696E7320746865207072696EA1
:1002B60074776865656C0A425320203078303820A0
:1002C600202020202020206E6F6E2D6465737472AE
:1002D600756374697665206261636B7370616365CB
:1002E6000A54414220307830392020202020202016
:1002F60020686F72697A6F6E74616C207461620A2D
:100306004C462020307830412020202020202020FC
:100316007061706572207570206F6E65206C696EF5
:10032600650A565420203078304220202020202094
:1003360020207061706572207570206F6E65206C6C
:10034600696E650A435220203078304420202020F0
:100356002020202072657475726E7320636172723C
:100366006961676520746F206C656674206D6172C3
:1003760067696E0A45534320307831422020202099
:100386002020202073656520446961626C6F2036E9
:10039600333020636F6D6D616E64732062656C6FC0
:1003A600772E2E2E0A0A446961626C6F203633302E
:1003B60020636F6D6D616E647320656D756C61741D
:1003C60065643A0A3C4553433E3C4F3E202020207C
:1003D6002020202073656C6563747320626F6C64E3
:1003E600207072696E74696E670A3C4553433E3CE1
:1003F600263E202020202020202063616E63656C2D
:100406007320626F6C64207072696E74696E670A1D
:100416003C4553433E3C453E2020202020202020C2
:1004260073656C6563747320636F6E74696E756F44
:10043600757320756E6465726C696E696E670A3CC9
:100446004553433E3C523E2020202020202020635E
:10045600616E63656C7320756E6465726C696E6936
:100466006E670A3C4553433E3C583E2020202020E0
:1004760020202063616E63656C7320626F74682050
:10048600626F6C6420616E6420756E6465726C695F
:100496006E696E670A3C4553433E3C553E2020201C
:1004A600202020202068616C66206C696E652066BD
:1004B6006565640A3C4553433E3C443E202020206B
:1004C60020202020726576657273652068616C66EF
:1004D600206C696E6520666565640A3C4553433E3B
:1004E6003C42533E202020202020206261636B7313
:1004F6007061636520312F31323020696E63680A7E
:100506003C4553433E3C4C463E20202020202020A4
:1005160072657665727365206C696E6520666565C1
:10052600640A3C53706163653E20666F72206D6F8E
:1005360072652C203C4553433E20746F20657869D4
:10054600742E2E2E000A0A5072696E74657220632C
:100556006F6E74726F6C206E6F742070617274208F
:100566006F662074686520446961626C6F2036335B
:100576003020656D756C6174696F6E3A0A3C45533F
:10058600433E3C753E202020202020202073656CB1
:1005960065637473206D6963726F20706170657234
:1005A6002075700A3C4553433E3C643E2020202083
:1005B6002020202073656C65637473206D696372F7
:1005C6006F20706170657220646F776E0A3C4553C8
:1005D600433E3C623E202020202020202073656C74
:1005E600656374732062726F6B656E20756E6465E9
:1005F600726C696E696E670A3C4553433E3C6C3EBD
:100606003C6E3E20202020206175746F206C696E40
:100616006566656564206F6E206F72206F66660A78
:100626003C4553433E3C633E3C6E3E20202020200A
:100636006175746F206361727269616765207265A6
:100646007475726E206F6E206F72206F66660A3C3C
:100656004553433E3C703E2020202020202020731E
:10066600656C656374732050696361207069746397
:10067600680A3C4553433E3C653E2020202020200E
:10068600202073656C6563747320456C69746520FE
:1006960070697463680A3C4553433E3C6D3E2020B6
:1006A60020202020202073656C65637473204D69BB
:1006B60063726F20456C6974652070697463680A9B
:1006C6000A446961676E6F73746963732F64656248
:1006D600756767696E673A0A3C4553433E3C5E5A06
:1006E6003E3C613E2020202073686F77207665723D
:1006F60073696F6E20696E666F726D6174696F6E75
:100706000A3C4553433E3C5E5A3E3C633E20202015
:100716002073686F772063757272656E7420636FDD
:100726006C756D6E0A3C4553433E3C5E5A3E3C6CCE
:100736003E3C6E3E207475726E20666C617368690D
:100746006E6720726564206572726F72204C454434
:10075600206F6E206F72206F66660A3C4553433EDB
:100766003C5E5A3E3C6D3E202020206D6F6E6974C3
:100776006F7220636F6D6D756E69636174696F6EFC
:1007860073206265747765656E20626F617264734B
:100796000A3C4553433E3C5E5A3E3C703E3C6E3EF0
:1007A6002073686F772076616C7565206F662050C0
:1007B6006F7274206E2028302D35290A3C4553432C
:1007C6003E3C5E5A3E3C723E202020207265736598
:1007D600742074686520576865656C7772697465FE
:1007E600720A3C4553433E3C5E5A3E3C753E2020D1
:1007F600202073686F7720757074696D650A3C45B3
:1008060053433E3C5E5A3E3C733E20202020736894
:100816006F77206D6963726F207370616365206303
:100826006F756E740A3C4553433E3C5E5A3E3C77B8
:100836003E2020202073686F77206E756D6265728A
:10084600206F66207761746368646F6720726573D2
:100856006574730A0A436F64652B4572617365207C
:100866006F6E20576865656C77726974657220745F
:100876006F67676C657320747970657772697465E4
:10088600722F6B6579626F617264206D6F64650AA1
:020896000A0056
:10004600C10CC10DC109C18BC10AC18E014F00018E
:100056004C01015005014D00014B00014E00014AC3
:0A00660000015100014800014900AB
:03000B000217C613
:1017C600C0E0C0D075D008E54B6002154B300B1455
:1017D600C3E548940A7480948050028001C39285C0
:1017E60092879286300910C3E548940A74809480E3
:1017F60050028001C392850548E5486414701AF5C5
:10180600480551AF51EF643C700FF551054AAF4A98
:0E181600EF643C7004F54A054ED0D0D0E032AD
:100898008F30E549B409004003020C129008ABF808
:1008A8002828730208C6020968020A11020B5102BD
:1008B8000BC7020BD7020BE5020C12020C05E53040
:1008C8007003020C1224F8601C14602D1460531479
:1008D800605D24FE606024F2607024147070121C45
:1008E800067F078062D3E54C94017480948050039E
:1008F800020C1212198C154C22E54C8550F084C359
:10090800E55095F0F532FF121950E4F531E531C3A1
:1009180095324003020C12054C7F2012003F05312E
:1009280080EB300D03121A0F121B977F0A801812E2
:100938001B977F0A8011121A0F754C01E4F54F308E
:100948000C03121B977F0D02003F75490122E54FEA
:10095800FD7C00AF3012160CAF3012003F054C2260
:10096800E4F549E53012147D09CD0809CA0A0A00E0
:100978001A09B42609C74409B8450A044809B04FFA
:1009880009BC5209C45509C05809D06209D4630981
:10099800FD6409D8650A046809E26C09F06D09E686
:1009A8007009FA7500000C12434F0122534F0622BA
:1009B800434F0222534F0122E4F54F22021B3C020F
:1009C8001BB4021BEC02000E434F04227549082297
:1009D80075130A751410755006227549052275138A
:1009E8000C7514107550052275130875140C755084
:1009F8000722021AFA021B1C754902227BFF7A029F
:100A08007982120C7575490622E4F549E53012140D
:100A18007D0A3B610A63630A91650A956C0A996DC0
:100A28000A9C700AA0720AAF730ADD750B20770062
:100A3800000C127537FF7538017539FF7BFF7A0096
:100A48007996120C75753301E533C3954C40030252
:100A58000C127F2012003F053380ED7537FF753883
:100A6800007539A3753A00854C3B7BFF7A00799B6A
:100A7800120C75753301E533C3954C4003020C1213
:100A88007F2012003F053380ED7549072275490420
:100A980022B20A22754903227F03121A8A900EF1A4
:100AA8007455F075C720227537FF7538007539B34E
:100AB80085153A85163B7BFF7A0079AB120C757564
:100AC8003301E533C3954C4003020C127F2012001A
:100AD8003F053380ED7537FF7538007539DCAF4E4B
:100AE800753A008F3B753C3AAF4A753D008F3E75AD
:100AF8003F3AAF517540008F417BFF7A0079C612AB
:100B08000C75753301E533C3954C4003020C127F15
:100B18002012003F053380ED7537FF7538007539B1
:100B2800E4900EF0E0753A00F53B7BFF7A0079AB74
:100B3800120C75753301E533C3954C4003020C1252
:100B48007F2012003F053380EDE4F549E53024CFDE
:100B5800602014602A14603414603E146048240530
:100B68006003020C127537FF753801753907AF80BD
:100B7800803F7537FF75380175390BAF9080327536
:100B880037FF75380175390FAFA080257537FF75A8
:100B98003801753913AFB080187537FF753801758E
:100BA8003917AFC0800B7537FF75380175391BAF22
:100BB800C8753A008F3B7BFF7A0079FC020C75E41C
:100BC800F549E53030E003D20922C209D28522E492
:100BD800F549E53030E003D20C22C20C22E530643E
:100BE80020700B7BFF7A05794B120C75800BE53072
:100BF800641B70167F0D12003FE4F54922E4F549A5
:0B0C0800E53030E003D20D22C20D22C7
:100F6F00E4F529F52FF52EF52DF52CF593F5947560
:100F7F008AB0758C3CF589D2A9D28C7F807E25FDF5
:100F8F00FC12175B121A38121A61D2AF7537FF7540
:100F9F0038017539FF7BFF7A007996120C75E5875A
:100FAF0030E4157BFF7A01791F120C75E4900EF077
:100FBF00F0A3F05387EF803DE5C130E7227537FF8F
:100FCF007538007539E4900EF0E004F0753A00F5CD
:100FDF003B7BFF7A01792F120C7553C17F801690DE
:100FEF000EF1E06455700E7BFF7A017936120C75A5
:100FFF00E4900EF1F07BFF7A017946120C75AF5138
:10100F00E48F2FF52EF52DF52C7F03121A8A43C18D
:10101F000643C120754B8CE54D60030210B1E54BC3
:10102F0070030210B1AF51E4FCFDFEAB2FAA2EA945
:10103F002DA82CC31214596013AF51E48F2FF52E26
:10104F00F52DF52C7F2E12003F43C110121C25EFFA
:10105F006031121B5B8E258F26121AD6E52914607C
:10106F001204701FE526B4211AE525B40115752960
:10107F00018010E52664014525700575290280035E
:10108F00E4F529121C31EF608E121B798E278F2801
:10109F00121AB2E5296402600302102685284D0258
:1010AF001026754B14E54B6041AF51E4FCFDFEABD0
:1010BF002FAA2EA92DA82CC31214596013AF51E4D7
:1010CF008F2FF52EF52DF52C7F2E12003F43C110DB
:1010DF00121C25EF6006121B5B121AD6121C31EF81
:1010EF0060C3121B79121AB280BBE54D24F0601D4C
:1010FF0024F0602D14603824E16045243870557B4E
:10110F00FF7A017953120C75755005802E7BFF7A8B
:10111F00017963120C7575500775130875140C80DF
:10112F00567BFF7A017974120C75755006800C7B13
:10113F00FF7A017985120C7575500675130A800FA9
:10114F007BFF7A017995120C7575500575130C7527
:10115F00141080237BFF7A0179A6120C757BFF7A1E
:10116F000179DB753700854D38120C757550067592
:10117F00130A751410D2097BFF7A0179E3120C75EB
:10118F00C20BD286D287D2850524E52470020523AF
:10119F0045237005B28743C110121C25EF604D1215
:1011AF001B5B8E258F26121BD1300A0F7BFF7A0116
:1011BF0079F9852537852638120C75AF26AE25129D
:1011CF00120B8F2AE52A602464F07013E54C64013A
:1011DF00701AB20E121C06121B3C121BB4800DAFFC
:1011EF002A300E05120898800312003F121C19EFC7
:0C11FF0060961219B98F2B120898808C92
:030043000218762A
:10187600C0E0C083C082C0D075D018E59A30E105BB
:10188600539AFDD20FE59A30E029539AFEAF5205DE
:10189600527E0074002FF582EE3400F583E59BF04E
:1018A600155420920EAF54C3EF9440748094805028
:0C18B60002D292D0D0D082D083D0E03299
:10175B008F338E328D318C30E4F552F553F5547551
:10176B009A50538EF7438E04AB33AA32A931A8306B
:10177B007FC07EC67D2DFC1213C7EFF404F5D7ABEB
:10178B0033AA32A931A8307FC07EC67D2D7C0012D2
:10179B0013C7C3E49FFFE49EFE74019DFDE49CFC14
:1017AB00780812146A8FD6438E10439A10439A020C
:0B17BB00539AFEC29243AF01D2AF224E
:0C1C1900E552655360037F01227F00222A
:1019B900E552655360FAAF5305537E0074002FF565
:1019C90082EE3400F583E0FF055430920EAE54EEFA
:0C19D900D39480748094804002C292225B
:08000300300FFD8F9BC20F229C
:03003C000219B9ED
:03003F00020003B9
:10150B0000494B3837393F4C2316363B0C0E5728C6
:10151B00302E2F2C32313335342A4E50004D004AA9
:10152B003D20121B1D1E110F141F212B18241A22D4
:10153B00153E17191C100D292D2613410040004F85
:10154B000001590507600A5A085D560B0904025F32
:10155B005C5203065E5B535551585400000000006B
:10156B000000000000000000000000000000000070
:10157B000000000000000000000000000000000060
:10158B0000003A00000000450000000000000000D1
:10159B00443C424300004600000000004847000066
:1015AB0020616E726D637364686C666B2C562D478D
:1015BB005546425A485029524C534E435444454980
:1015CB00414A4F284D2E592C2F57394B3358313216
:1015DB003035343638372A242325A22BB1405126F7
:1015EB005D5BB3B2BAA7B6BDBC213F22603D3A5F8B
:1015FB003B7871767A776A2E796267757069746F4A
:01160B006579
:1000700001130A011410021500000110FF02110003
:01008000007F
:101A8A00EF24FE6007047008D2948008D284800490
:101A9A00D284D294E4FFEFC3946E7480948050038E
:081AAA000F80F3C284C29422F4
:10198C00C2867F217E011219E57F067E001219E5C1
:10199C00E4FFFE1219E5AF137E001219E5C3E5163C
:0D19AC009513F516E5159400F515D2862269
:10000E00E51645156027C2867F217E011219E57F10
:10001E00067E001219E5E4FFFE1219E57F017E004F
:0E002E001219E5E516151670021515D2862278
:101A0F00C2867F217E011219E57F067E001219E53D
:101A1F00E5157E005407FF1219E57E00AF16121967
:091A2F00E5E4F515F516D2862256
:101C0600C2867F217E011219E57F077E001219E543
:031C1600D2862251
:10195000C286EF8513F0A485F034F5357F217E0132
:101960001219E57F067E001219E5E5347E00540762
:101970004480FF1219E57E00AF351219E5E53525E3
:0C19800016F516E5343515F515D2862253
:101824008F17C2867F217E011219E57F067E001282
:1018340019E5E4FFFE1219E5AF137E001219E57FE6
:10184400217E011219E57F047E001219E5E5179047
:1018540014EB93FF3395E0FE1219E5AF137E0012EB
:1018640019E5C3E5169513F516E5159400F515D29B
:021874008622CA
:101B9700C2867F217E011219E57F057E001219E5B5
:0D1BA700E5144480FF7E001219E5D286226D
:101BEC00C2867F217E011219E57F057E001219E560
:0A1BFC00AF147E001219E5D2862214
:101B3C00C2867F217E011219E57F057E001219E510
:0F1B4C00E514C3137E004480FF1219E5D28622F0
:101BB400C2867F217E011219E57F057E001219E598
:0D1BC400E514C313FF7E001219E5D286223E
:101AFA00C2867F217E011219E57F057E001219E553
:101B0A00E514131313541F7E004480FF1219E5D203
:021B1A00862221
:101B1C00C2867F217E011219E57F057E001219E530
:101B2C00E514131313541FFF7E001219E5D28622FD
:10160C008F348C358D367E00D3EF941F748094808C
:10161C0050030216CEEF94C07480948040030216DF
:10162C00CEC2867F210E1219E57F037E001219E5CA
:10163C00E5349014EB93FF3395E0FE1219E5E53693
:10164C0054066026E53464207005E53630E11BE471
:10165C00FFFE1219E57F217E011219E57F037E0042
:10166C001219E57F4F7E001219E5E53630E02E7F2A
:10167C00017E001219E57F217E011219E57F037EA0
:10168C00001219E5E5349014EB93FF3395E0FE124C
:10169C0019E5E51324FFFFE434FFFE8004AF137E4D
:1016AC00001219E5E5132516F516E43515F515D3D5
:1016BC00E51694AAE51594054006121A0F754C010F
:0316CC00D28622A1
:10120B008E308F31E4F532E51012147D127E03120D
:10121B009A0512CB06131E0E12843112DC61130FCA
:10122B0062124BFE1236FF00001382E5316421700F
:10123B0004E530640160030213827510FE02138211
:10124B00E5307029E53124FB601114601424F8603B
:10125B0016240B70187510030213827510050213F8
:10126B008275100602138275100E0213827510FF21
:10127B000213827510310213827510FF74AB2512A5
:10128B00F58274153511F583E493F53202138275EB
:10129B0010FFE531541FB51409E4E53130E70302C3
:1012AB001366200E030213827F217E011219E57F44
:1012BB00057E001219E5AF31AE301219E50213822B
:1012CB00E53130E706751061021382751062021367
:1012DB00827510FFE513FD7C00D3E5319DE5309C55
:1012EB004013E51375F00AA4FFC3E5319FE5309574
:1012FB00F05002806BED65317003EC6530707875E2
:10130B00322080737510FFE51365317002E5307084
:10131B006680437510FFE531547F12147D134D0623
:10132B0013521613571D135C2413612513662613D2
:10133B006B2A13702C137534137A48137F4F0000EC
:10134B00138275321A8030753203802B7532078009
:10135B002675320A8021753208801C75320D801774
:10136B00753209801275320B800D75320C80087541
:10137B00321B80037532F0853011853112AF32226A
:03008B000218C296
:1018C200C0E0C083C082C0D075D018E5AC30E1055D
:1018D20053ACFDD210E5AC30E02453ACFEAFAD7E8C
:1018E20000E5AC30E2010EAD550555ED540F25E093
:1018F2002400F582E43401F583EEF0A3EFF0D0D0BA
:07190200D082D083D0E03257
:101A3800E4F555F55643AC4053D1FB43D10275D577
:101A4800F075D4FF43D10843AC8043AC1043AC02DB
:091A580053ACFE43AF08D2AF22EB
:101BD1003010FDC2103080FD53ACEF53ACF7E4F58B
:0B1BE100AD3010FD3080FD43AC102241
:101AB2003010FDC2103080FD53ACEFEE30E0054334
:101AC200AC08800353ACF7EFF5AD3010FD3080FD6C
:041AD20043AC1022EF
:0C1C2500E555655660037F01227F002218
:101B5B00E555655660FAAF560556EF540F25E02450
:0E1B6B0000F582E43401F583E0FEA3E0FF22E2
:0300930002190946
:10190900C0E0C083C082C0D075D018E58430E1053D
:101919005384FDD211E58430E0245384FEAF857EE3
:1019290000E58430E2010EAD570557ED540F25E06F
:101939002420F582E43401F583EEF0A3EFF0D0D052
:07194900D082D083D0E03210
:101A6100E4F557F55843844053D1BF43D12075D392
:101A7100F075D2FF43D180438480438410438402B4
:091A81005384FE43AF10D2AF22E2
:1019E5003011FDC2113082FD5384EFEE30E0054326
:1019F500840880035384F7EFF5853011FD3082FDAF
:0A1A05002082FD3082FD4384102290
:101AD6003011FDC2113082FD5384EFEE30E0054334
:101AE600840880035384F7EFF5853011FD3082FDBD
:041AF60043841022F3
:0C1C3100E557655860037F01227F002208
:101B7900E557655860FAAF580558EF540F25E0242A
:0E1B890020F582E43401F583E0FEA3E0FF22A4
:030000000216CF16
:0C16CF00787FE4F6D8FD758158021716EC
:10138B0075F008758200EF2FFFEE33FECD33CDCC19
:10139B0033CCC58233C5829BED9AEC99E58298409C
:1013AB000CF582EE9BFEED9AFDEC99FC0FD5F0D679
:1013BB00E4CEFBE4CDFAE4CCF9A88222B800C1B9A3
:1013CB000059BA002DEC8BF084CFCECDFCE5F0CBE1
:1013DB00F97818EF2FFFEE33FEED33FDEC33FCEB1A
:1013EB0033FB10D703994004EB99FB0FD8E5E4F9D5
:1013FB00FA227818EF2FFFEE33FEED33FDEC33FCC2
:10140B00C933C910D7059BE99A4007EC9BFCE99AB5
:10141B00F90FD8E0E4C9FAE4CCFB2275F010EF2FFA
:10142B00FFEE33FEED33FDCC33CCC833C810D707FA
:10143B009BEC9AE899400AED9BFDEC9AFCE899F835
:0E144B000FD5F0DAE4CDFBE4CCFAE4C8F922C8
:10145900EB9FF5F0EA9E42F0E99D42F0E89C45F0E9
:011469002260
:10146A00E8600FECC313FCED13FDEE13FEEF13FF60
:03147A00D8F12284
:10147D00D083D082F8E4937012740193700DA3A3FE
:10148D0093F8740193F5828883E473740293686012
:06149D00EFA3A3A380DF12
:100C1300E5432437F8E60543227834300702783772
:100C2300E475F0011214FB0214A32000EB7F2ED213
:100C3300008018EF540F2490D43440D4FF30040BB9
:100C4300EF24BFB41A0050032461FFE5446002158A
:100C5300440547E5477002054630070D7834E475CF
:100C6300F0011214FBEF0214E902003F7403D207F0
:100C73008003E4C207F5438B348A358936E4F544AF
:100C8300F546F547E54460077F20120C4E80F57565
:100C930045FFC201C200C202C203C205C206C208A6
:100CA300120C1CFF700D3007057F00120C5FAF475D
:100CB300AE4622B4255FC2D5C204120C1CFF24D059
:100CC300B40A00501A75F00A784430D50508B6FF07
:100CD3000106C6A426F620D5047002D20380D924C7
:100CE300CFB41A00EF5004C2E5D204020E5FD20162
:100CF30080C6D20080C0D20280BCD2D580BAD205D1
:100D030080B47F20120C4E2002077401B5440040CA
:100D1300F1120C13FF120C4E020C87D208D206807C
:100D230095120C13FB120C13FA120C13F94A4B70A5
:100D33000679307A0F7BFF20022EE544602A7E007D
:100D43008E827583001214BC60060EEE654570F04A
:100D5300C2D5EBC0E0EAC0E0E9C0E0EE120EA6D0D7
:100D6300E0F9D0E0FAD0E0FB1214A3FF60AAEBC0D5
:100D7300E0EAC0E0E9C0E0120C4ED0E02401F9D073
:100D8300E03400FAD0E0FBE5450460DCD545D980CA
:100D9300877BFF7A0E79A2D202809C791080027938
:100DA30008C206C2088008D2D5790A8004790AC22B
:100DB300D5E545047002F545E4FAFDFEFF120C1378
:100DC300FC7B08200113120C13FD7B1030000A1268
:100DD3000C13FE120C13FF7B20EC3382D592D550FB
:100DE30013C3E43000069FFFE49EFEE42001039D4D
:100DF300FDE49CFCE4CBF8C201EC700CCFCECDCC6F
:100E0300E824F8F870F38017C3EF33FFEE33FEEDF9
:100E130033FDEC33FCEB33FB994002FB0FD8E9EBDA
:100E2300300105F8D0E0C448B201C0E00AEC4D4EF1
:100E33004F78207B0070C2EAB5450040BCC0E01289
:100E43000EA8D0F0D0E0200104C4C0E0C4B201C0B9
:100E5300F0120C37D0F0D5F0EB020C8712147D0D95
:100E630024530D9E580CF54C0CF1420DA24F0DAAC4
:0F0E7300440DAA490D0A430DB0550D94460D9438
:100E8200450D94470F50500CF92D0CFD2E0D202BC3
:100E92000D01230D1E200F392A0CB94800000D1830
:100EA2003F3F3F00790AA2D5200314300509B9104B
:100EB200020404B9080104A2D5200602500104204C
:100EC20002689202B544005034C0E07F203003191A
:100ED2007F30A20272067205500F120EFFC202C2CA
:100EE20006C205C2087F30800F300503E9C0E01258
:100EF2000C4E300503D0E0F9D0E0B544CC300517F4
:100F02007F30B9100C120C4E7F583004077F788066
:100F120003B90803120C4E3002057F2D020C4E7FDE
:100F2200202008F87F2B2006F322920280CF286E21
:100F3200756C6C2900D201120C133001F8C20178D1
:100F42004430D50108F6020CB92D50434958120C11
:100F5200132403B405004001E4900F4B93120C3F9D
:0D0F6200743A120C3FD203754404020D9E38
:1016DB00020F6FE493A3F8E493A34003F68001F2A7
:1016EB0008DFF48029E493A3F85407240CC8C33310
:1016FB00C4540F4420C8834004F456800146F6DFDF
:10170B00E4800B0102040810204080900046E47E28
:10171B00019360BCA3FF543F30E509541FFEE493D3
:10172B00A360010ECF54C025E060A840B8E493A39A
:10173B00FAE493A3F8E493A3C8C582C8CAC583CAC5
:10174B00F0A3C8C582C8CAC583CADFE9DEE780BE7D
:01008100007E
:1014A300BB010689828A83E0225002E722BBFE0247
:0914B300E32289828A83E493227A
:1014BC00BB010CE58229F582E5833AF583E02250E5
:1014CC0006E92582F8E622BBFE06E92582F8E2222F
:0D14DC00E58229F582E5833AF583E4932249
:1014E900BB010689828A83F0225002F722BBFE01E2
:0214F900F322DC
:1014FB00FAE6FB0808E6F925F0F618E6CA3AF622F2
:00000001FF
