:04000000020099322F
:03000B0002013FB0
:0100130032BA
:01001B0032B2
:0300230002137154
:01002B0032A2
:01003300329A
:01003B003292
:0300430002146C38
:01004B003282
:01005300327A
:01005B003272
:01006300326A
:01006B003262
:01007300325A
:01007B003252
:01008300324A
:03008B0002155605
:0300930002164C06
:1000F200752A00752B00752C007522007523017579
:1001020024057525007526007527007528007529B8
:0D01120000C200C201C202D203C204D20525
:0301310002009633
:0300960002091547
:1001340002140E1214317E008E8322C0E0C0D075EA
:10014400D008E52660021526300315C3E52A940A73
:100154009206E43324FF9285A2859287A287928631
:1001640030020DC3E52A940A9206E43324FF9285F3
:10017400052A7414B52A1D752A00E52904FF8F2960
:10018400BF3C11752900E52804FF8F28BF3C057585
:1001940028000527D0D0D0E032AF82E52B24FC50D4
:1001A4000122E52B75F003A49001B0730201BC0297
:1001B400028602033202033FBF000122BF0702800E
:1001C40023BF08028027BF0902802FBF0A02805B79
:1001D400BF0B028065BF0D03020247BF1B0302026F
:1001E4005C020260120DF9900007020137E5232436
:1001F400FE400122120D701523228524F0E523848C
:10020400AEF0E524C39EFEF582C006120E0AD006A7
:100214007D00C3ED9E4001220523900020C006C04E
:1002240005120137D005D0060D80E7300103120D09
:10023400CD120EC890000A020137120EC890000AAF
:10024400020137120DCD752301752200300003120F
:100254000EC890000D020137752B0122EF24E040F7
:100264000122BF800040012285223F8F82C00712F5
:100274000F89D0078F057E008D828E83120137058A
:100284002322752B00BF08030202FFBF0A030202E8
:10029400FCBF2602804CBF4402805ABF4502804600
:1002A400BF4F028039BF52028040BF55028043BF16
:1002B4005802803ABF62028045BF63028044BF6433
:1002C4000302032FBF6502803DBF6C028042BF6DF5
:1002D40002804BBF7002803CBF7502804B224322D8
:1002E4000122532206224322022253220122752292
:1002F4000022020F03020F25020EE7020DA1432282
:100304000422752B0322753B0A753C1075240622C2
:10031400752B0222753B0C753C1075240522753B28
:1003240008753C0C75240722020F44020F68752BD4
:1003340000EF30E003D20022C20022752B00EF3020
:10034400E003D20122C20122AF82E52C24FA50013B
:1003540022E52C75F003A490035F7302037102037A
:100364007B0203AB0207BC0208DD0208ECBF1B02E0
:10037400800122752C0122752C00BF1A02800BBF4C
:100384004802800ABF6802800522752C022274D8B4
:10039400C0E0741FC0E07480C0E01217FE15811520
:1003A400811581752C0522752C00BF61028026BF42
:1003B4006C028058BF6D028057BF70028055BF72B7
:1003C400028054BF7502805FBF7603020488BF7742
:1003D4000302077A227445C0E0741FC0E07480C031
:1003E400E074B3C0E07425C0E07480C0E01217FE6E
:1003F400E58124FAF5817E01C3EE95234001229024
:100404000020C006120137D0060E80EC752C0422A1
:10041400B20422752C0322758203120D4F900EF143
:100424007455F075C72022AD297E00AB287C00A945
:10043400277A00C005C006743AC0E0E4C0E0C003F7
:10044400C004743AC0E0E4C0E0C001C00274CEC08D
:10045400E07425C0E07480C0E074B8C0E07425C0C6
:10046400E07480C0E01217FEE58124F0F5817E017E
:10047400C3EE9523400122900020C006120137D01C
:10048400060E80EC74D6C0E07425C0E07480C0E031
:100494001217FE1581158115813000067DF37E2526
:1004A40080047DF87E257C80C005C006C00474DF0E
:1004B400C0E07425C0E0ECC0E074D8C0E07425C08E
:1004C400E0ECC0E01217FEE58124F7F58130010667
:1004D4007DF37E2580047DF87E257C80C005C006E2
:1004E400C00474FEC0E07425C0E0ECC0E074D8C061
:1004F400E07425C0E0ECC0E01217FEE58124F7F5B6
:10050400813003067DF37E2580047DF87E257C8082
:10051400C005C006C0047412C0E07426C0E0ECC07C
:10052400E074D8C0E07425C0E0ECC0E01217FEE52A
:100534008124F7F5813004067DF37E2580047DF85F
:100544007E257C80C005C006C0047426C0E07426E5
:10055400C0E0ECC0E074D8C0E07425C0E0ECC0E0BA
:100564001217FEE58124F7F5813005067DF37E251B
:1005740080047DF87E257C80C005C006C004743AE2
:10058400C0E07426C0E0ECC0E074D8C0E07425C0BC
:10059400E0ECC0E01217FEE58124F7F581E5223096
:1005A400E0067D317E0080047D307E00E52230E16E
:1005B400067B317C0080047B307C00E52230E2063F
:1005C40079317A00800479307A00E52230E30875C5
:1005D4002D31752E008006752D30752E00E52230E4
:1005E400E408752F317530008006752F30753000A2
:1005F400E52230E5087531317532008006753130F9
:10060400753200E52230E608753331753400800612
:10061400753330753400E52230E7087535317536A9
:10062400008006753530753600C005C006C003C0AD
:1006340004C001C002C02DC02EC02FC030C031C0C4
:1006440032C033C034C035C0367463C0E07426C0D1
:10065400E07480C0E0744EC0E07426C0E07480C0D2
:10066400E01217FEE58124EAF581AD237E00C00582
:10067400C006747EC0E07426C0E07480C0E0747765
:10068400C0E07426C0E07480C0E01217FEE5812447
:10069400F8F581AD247E00C005C0067492C0E074F4
:1006A40026C0E07480C0E07477C0E07426C0E074B3
:1006B40080C0E01217FEE58124F8F581AD257E00A7
:1006C400C005C00674B1C0E07426C0E07480C0E008
:1006D40074A6C0E07426C0E07480C0E01217FEE582
:1006E4008124F8F581AD3B7E00C005C00674C5C009
:1006F400E07426C0E07480C0E07477C0E07426C063
:10070400E07480C0E01217FEE58124F8F581AD3C69
:100714007E00C005C00674D9C0E07426C0E07480B1
:10072400C0E07477C0E07426C0E07480C0E01217A3
:10073400FEE58124F8F581AD3DAE3EC005C00674EA
:10074400EDC0E07426C0E07480C0E07477C0E0744B
:1007540026C0E07480C0E01217FEE58124F8F5811C
:100764007E01C3EE9523400122900020C0061201B1
:1007740037D0060E80EC900EF0E0FE7D00C006C07F
:10078400057409C0E07427C0E07480C0E07401C03F
:10079400E07427C0E07480C0E01217FEE58124F8FD
:1007A400F5817E01C3EE9523400122900020C0060E
:1007B400120137D0060E80EC752C00BF3002801D6C
:1007C400BF31028042BF32028067BF330302085F39
:1007D400BF3403020889BF35030208B322AD807E0B
:1007E40000C005C0067421C0E07427C0E07480C056
:1007F400E074A6C0E07426C0E07480C0E01217FE66
:10080400E58124F8F58122AD907E00C005C0067410
:1008140025C0E07427C0E07480C0E074A6C0E07412
:1008240026C0E07480C0E01217FEE58124F8F5814B
:1008340022ADA07E00C005C0067429C0E07427C0A4
:10084400E07480C0E074A6C0E07426C0E07480C088
:10085400E01217FEE58124F8F58122ADB07E00C0D8
:1008640005C006742DC0E07427C0E07480C0E07435
:10087400A6C0E07426C0E07480C0E01217FEE581D3
:1008840024F8F58122ADC07E00C005C0067431C0D5
:10089400E07427C0E07480C0E074A6C0E07426C091
:1008A400E07480C0E01217FEE58124F8F58122ADE2
:1008B400C87E00C005C0067435C0E07427C0E0746B
:1008C40080C0E074A6C0E07426C0E07480C0E0126A
:1008D40017FEE58124F8F58122752C00EF30E00342
:1008E400D20222C202D28522BF201974A1C0E074B0
:1008F40022C0E07480C0E01217FE158115811581B5
:10090400752C0022BF1B0990000D120137752C00B5
:10091400227F008F938F94758AB0758C3C8F89D217
:10092400A9D28C90C20075F001E4C0071213AB90F9
:100934002580E4F5F01214B41215A812169ED2AF55
:100944007445C0E0741FC0E07480C0E074B3C0E0BC
:100954007425C0E07480C0E01217FEE58124FAF526
:1009640081D007E58730E427C0077439C0E07427D5
:10097400C0E07480C0E01217FE158115811581D086
:1009840007900EF0E4F0900EF1F05387EF8063E5EA
:10099400C130E738900EF0E02401FEF07D00C0077E
:1009A400C006C0057409C0E07427C0E07480C0E0CC
:1009B4007477C0E07426C0E07480C0E01217FEE5CE
:1009C4008124F8F581D00753C17F8026900EF1E091
:1009D400FEBE551EC0077449C0E07427C0E0748091
:1009E400C0E01217FE158115811581D007900EF114
:1009F400E4F0C0077459C0E07427C0E07480C0E01C
:100A04001217FE15811581158185293775380075F2
:100A14003900753A00758203120D4FD00743C106A1
:100A240043C12075268CE5256003020ADBE52670A8
:100A340003020ADBA829E4F9FAFEE8B5370EE9B5A2
:100A4400380AEAB53906EEB53A02801985293775B0
:100A54003800753900753A0090002EC0071201372E
:100A6400D00743C110C007121614E582D0076036C0
:100A7400C007121625AD82AE83C006C0051216F556
:100A8400D005D006D007BF00028005BF0118800A38
:100A9400BD2113BE01107F01800CBD0107BE0004FF
:100AA4007F0280027F00C00712171CE582D0077006
:100AB40003020A2AC00712172DAD82AE83C006C0F6
:100AC400051215EDD005D006D007BF02028003023F
:100AD4000A2A8D25020A2A752614E5266049AC29BE
:100AE400E4FDFEFFECB5370EEDB5380AEEB5390678
:100AF400EFB53A02801585293775380075390075C8
:100B04003A0090002E12013743C110121614E582E8
:100B140060061216251216F512171CE58260BB1228
:100B2400172D1215ED80B37408B5250280207410BA
:100B3400B52502803A7420B5250280547421B52568
:100B440002806E7440B52503020BD5020BF5746662
:100B5400C0E07427C0E07480C0E01217FE15811550
:100B6400811581752405753B0A753C10020C32749D
:100B740076C0E07427C0E07480C0E01217FE1581CF
:100B840015811581752407753B08753C0C020C32E0
:100B94007487C0E07427C0E07480C0E01217FE15AB
:100BA4008115811581752406753B0A753C10020C6C
:100BB400327498C0E07427C0E07480C0E01217FE5D
:100BC400158115811581752406753B0A753C1080C5
:100BD4005D74A8C0E07427C0E07480C0E01217FE02
:100BE400158115811581752405753B0C753C1080A4
:100BF4003D74B9C0E07427C0E07480C0E01217FEF1
:100C0400158115811581AE257F00C006C00774EEDD
:100C1400C0E07427C0E07480C0E01217FEE58124B0
:100C2400FBF581752406753B0A753C10D20274F6F7
:100C3400C0E07427C0E07480C0E01217FE1581156F
:100C4400811581C203D286D287D2857E007F00437C
:100C5400C11074012EFCE43FFD8C068D07EC4D7031
:100C640002B287C007C006121614E582D006D00768
:100C74007003020D0FC007C006121625AC82AD83A7
:100C8400C005C0041215D2D004D005D006D0073058
:100C94000429C007C006C005C004C004C005740C04
:100CA400C0E07428C0E07480C0E01217FEE581241F
:100CB400FBF581D004D005D006D0078C828D83C08B
:100CC40007C00612106BAD82D006D007ED603CBDA4
:100CD400F01A7401B52334B205C007C006120DF929
:100CE400120F03120F25D006D007801F30050F8D79
:100CF40082C007C00612019DD006D007800D8D82E8
:100D0400C007C00612154AD006D007C007C0061295
:100D1400150EE582D006D007600EC007C006121576
:100D24001F12019DD006D007C007C0061213FDE5AF
:100D340082D006D0077003020C53C007C0061214F9
:0B0D44000E12034CD006D007020C5327
:101F4500576865656C7772697465722054656C6550
:101F5500747970652056657273696F6E20312E3401
:101F65000A666F72205354436D6963726F2049414D
:101F750050313557344B36315334204D435520615C
:101F85006E64205344434320436F6D70696C6572E2
:101F95000A436F6D70696C6564206F6E204A616ECF
:101FA50020313520323032342061742030373A33D5
:101FB500343A35380A436F7079726967687420322C
:101FC5003031392D32303234204A696D204C6F6FF3
:101FD500730A000A0A436F6E74726F6C206368613E
:101FE500726163746572733A0A42454C20307830E9
:101FF5003720202020202020207370696E732074E4
:102005006865207072696E74776865656C0A4253FD
:1020150020203078303820202020202020206E6F8E
:102025006E2D64657374727563746976652062617B
:10203500636B73706163650A5441422030783039AF
:102045002020202020202020686F72697A6F6E740E
:10205500616C207461620A4C462020307830412042
:10206500202020202020207061706572207570204E
:102075006F6E65206C696E650A5654202030783085
:10208500422020202020202020706170657220755C
:1020950070206F6E65206C696E650A435220203092
:1020A500783044202020202020202072657475720D
:1020B5006E7320636172726961676520746F206C4D
:1020C500656674206D617267696E0A4553432030F9
:1020D500783142202020202020202073656520446F
:1020E5006961626C6F2036333020636F6D6D616E90
:1020F50064732062656C6F772E2E2E0A0A4469611F
:10210500626C6F2036333020636F6D6D616E647362
:1021150020656D756C617465643A0A3C4553433EB0
:102125003C4F3E202020202020202073656C6563D5
:10213500747320626F6C64207072696E74696E6767
:102145000A3C4553433E3C263E20202020202020AB
:102155002063616E63656C7320626F6C64207072BE
:10216500696E74696E670A3C4553433E3C453E20A3
:102175002020202020202073656C65637473206304
:102185006F6E74696E756F757320756E6465726CAC
:10219500696E696E670A3C4553433E3C523E2020BA
:1021A50020202020202063616E63656C7320756E8E
:1021B5006465726C696E696E670A3C4553433E3CC3
:1021C500583E202020202020202063616E63656C0E
:1021D5007320626F746820626F6C6420616E642086
:1021E500756E6465726C696E696E670A3C4553432A
:1021F5003E3C553E202020202020202068616C6632
:10220500206C696E6520666565640A3C4553433EEE
:102215003C443E20202020202020207265766572D7
:1022250073652068616C66206C696E6520666565FE
:10223500640A3C4553433E3C42533E202020202027
:1022450020206261636B737061636520312F3132C9
:102255003020696E63680A3C4553433E3C4C463E1C
:102265002020202020202072657665727365206C01
:10227500696E6520666565640A3C53706163653EF9
:1022850020666F72206D6F72652C203C4553433E6E
:1022950020746F20657869742E2E2E000A0A5072FC
:1022A500696E74657220636F6E74726F6C206E6FE9
:1022B500742070617274206F6620746865204469AB
:1022C50061626C6F2036333020656D756C617469A1
:1022D5006F6E3A0A3C4553433E3C753E2020202014
:1022E5002020202073656C65637473206D696372AB
:1022F5006F2070617065722075700A3C4553433ECE
:102305003C643E202020202020202073656C6563DE
:102315007473206D6963726F2070617065722064DB
:102325006F776E0A3C4553433E3C623E2020202099
:102335002020202073656C656374732062726F6B57
:10234500656E20756E6465726C696E696E670A3CB0
:102355004553433E3C6C3E3C6E3E20202020206190
:1023650075746F206C696E6566656564206F6E2097
:102375006F72206F66660A3C4553433E3C633E3CA4
:102385006E3E20202020206175746F20636172727B
:10239500696167652072657475726E206F6E206F56
:1023A50072206F66660A3C4553433E3C703E2020D2
:1023B50020202020202073656C656374732050698C
:1023C50063612070697463680A3C4553433E3C650C
:1023D5003E202020202020202073656C65637473C7
:1023E50020456C6974652070697463680A3C4553BF
:1023F500433E3C6D3E202020202020202073656C2C
:1024050065637473204D6963726F20456C697465EB
:102415002070697463680A0A446961676E6F737432
:102425006963732F646562756767696E673A0A3C0D
:102435004553433E3C5E5A3E3C613E20202020737E
:10244500686F772076657273696F6E20696E666F47
:10245500726D6174696F6E0A3C4553433E3C5E5A2A
:102465003E3C6C3E3C6E3E207475726E20666C611F
:102475007368696E6720726564206572726F722079
:102485004C4544206F6E206F72206F66660A3C458E
:1024950053433E3C5E5A3E3C6D3E202020206D6FEE
:1024A5006E69746F722046756E6374696F6E204233
:1024B5006F61726420636F6D6D616E64730A3C4574
:1024C50053433E3C5E5A3E3C703E3C6E3E20736834
:1024D5006F772076616C7565206F6620506F72741A
:1024E500206E2028302D35290A3C4553433E3C5E5D
:1024F5005A3E3C723E20202020726573657420741C
:10250500686520576865656C7772697465720A3C01
:102515004553433E3C5E5A3E3C753E202020207389
:10252500686F7720757074696D650A3C4553433E45
:102535003C5E5A3E3C763E2020202073686F772013
:102545007661726961626C65730A3C4553433E3C32
:102555005E5A3E3C773E2020202073686F77206EC0
:10256500756D626572206F66207761746368646F4C
:1025750067207265736574730A0A436F64652B453A
:1025850072617365206F6E20576865656C77726937
:1025950074657220746F67676C6573206C696E650E
:1025A5002F6C6F63616C206D6F64650A0A000A25E4
:1025B500730A000A257320253032752563253032CC
:1025C500752563253032750A00557074696D653A55
:1025D500000A0025732025730A006175746F4C6924
:1025E5006E65466565643A202020202020007472BF
:1025F50075650066616C7365006175746F43617222
:10260500726961676552657475726E3A00696E69C3
:102615007469616C697A696E673A202020202020F0
:10262500006D6F6E69746F723A2020202020202083
:1026350020202020006C6F63616C4D6F64653A202B
:1026450020202020202020200025732025632563BD
:102655002563256325632563256325630A00617466
:10266500747269627574653A20202020202020202C
:10267500200025732025640A00636F6C756D6E3A22
:10268500202020202020202020202020007461628E
:1026950053746F703A2020202020202020202020F5
:1026A500002573203078253032580A007072696E23
:1026B50074576865656C3A20202020202020200072
:1026C50075537061636573506572436861723A2032
:1026D50020202000754C696E65735065724C696EDB
:1026E500653A202020202000755370616365436F93
:1026F500756E743A20202020202020000A257320A2
:1027050025640A00576174636820446F6720546923
:102715006D6572207265736574733A0050303A00C6
:1027250050313A0050323A0050333A0050343A00B2
:1027350050353A00506F7765722D6F6E2072657354
:1027450065740A00536F66747761726520726573EC
:1027550065740A00496E697469616C697A696E67A6
:10276500000A5053207072696E74776865656C0A4B
:10277500000A313550207072696E74776865656C32
:102785000A000A313250207072696E747768656587
:102795006C0A000A4E6F207072696E747768656501
:1027A5006C0A000A313050207072696E7477686562
:1027B500656C0A000A556E61626C6520746F206451
:1027C500657465726D696E65207072696E7477687F
:1027D50065656C2E2044656661756C74696E67204D
:1027E500746F203132502E0A003078253032580A65
:1027F50000455343204820666F722068656C700A57
:0D28050052656164790A00253033580A00DD
:10011F007540FFE4F541F542753B0A753C10F53D1E
:02012F00F53E9B
:100D4F00AF82BF01028005BF020A8004D2948008DF
:100D5F00D2848004D284D2947F6EDFFEC284C29488
:100D6F0022C2869001211216C89000061216C89052
:100D7F0000001216C8AE3B7F008E828F831216C8FA
:100D8F00AE3B7F00E53DC39EF53DE53E9FF53ED270
:100D9F008622E53D453E6025C2869001211216C888
:100DAF009000061216C89000001216C8900001128B
:100DBF0016C8153D74FFB53D02153ED28622C28678
:100DCF009001211216C89000061216C8AE3E740785
:100DDF005EF5827583001216C8853D8275830012F9
:100DEF0016C8E4F53DF53ED28622C2869001211247
:100DFF0016C89000071216C8D28622AF82C2868FFD
:100E0F00F0E53BA4FFAEF0900121C007C00612161B
:100E1F00C89000061216C8D0068E045304077D0032
:100E2F0074804CF5828D83C0061216C8D006D00789
:100E3F008F82758300C007C0061216C8D006D00770
:100E4F00EF253DF53DEE353EF53ED28622AF82C20F
:100E5F0086900121C0071216C89000061216C8907E
:100E6F0000001216C8AD3B7E008D828E831216C80D
:100E7F009001211216C89000041216C8D007EF2453
:100E8F00E0FF3395E0FEEF2412F582EE3428F58370
:100E9F00E493FF7E008F828E831216C8AE3B7F00D5
:100EAF008E828F831216C8AE3B7F00E53DC39EF541
:100EBF003DE53E9FF53ED28622C286900121121655
:100ECF00C89000051216C87480453CFF7E008F82C3
:100EDF008E831216C8D28622C2869001211216C89E
:100EEF009000051216C8AF3C7E008F828E831216BB
:100EFF00C8D28622C2869001211216C89000051210
:100F0F0016C8E53CC313FF4307807E008F828E8394
:100F1F001216C8D28622C2869001211216C89000DE
:100F2F00051216C8E53CC313FF7E008F828E831215
:100F3F0016C8D28622C2869001211216C8900005CB
:100F4F001216C8E53CC423541FFF4307807E008F51
:100F5F00828E831216C8D28622C286900121121663
:100F6F00C89000051216C8E53CC423541FFF7E002D
:100F7F008F828E831216C8D28622AF82C2869001CC
:100F8F0021C0071216C89000031216C8D0078F068B
:100F9F00EE24E0FD3395E0FCED2412F582EC3428CD
:100FAF00F583E493FD7C008D828C83C007C006120D
:100FBF0016C8D006D007E53FFD54066027BF2004B2
:100FCF00ED30E120900000C006C0051216C8900158
:100FDF00211216C89000031216C890004F1216C89F
:100FEF00D005D006ED30E047900001C0061216C8BC
:100FFF009001211216C89000031216C8D006EE24D5
:10100F00E0FE3395E0FFEE2412F582EF3428F583EE
:10101F00E493FF7E008F828E831216C8AE3B7F0053
:10102F00EE24FFF582EF34FFF5831216C8800BAE66
:10103F003B7F008E828F831216C8AE3B7F00EE255A
:10104F003DF53DEF353EF53EC374AA953D740595CC
:10105F003E5006120DCD752301D28622AE82AF838C
:10106F007D007430B540030211097431B54003029D
:10107F00110F7450B540030211247460B540030280
:10108F0011737461B540030211837462B54003029A
:10109F0011D374E0B540030211EC74FEB540028029
:1010AF001B74FFB54002800302136ABE2105BF0106
:1010BF0002800302136A7540FE02136ABE0305BF66
:1010CF0000028018BE0505BF00028016BE0605BFD0
:1010DF0000028014BE0E1DBF001A80127540300230
:1010EF00136A75405002136A75406002136A7540A7
:1010FF00E002136A7540FF02136A75403102136AEA
:10110F007540FFE5412472F582E5423428F583E40A
:10111F0093FD02136A7540FF741F5EFB7C00A93CB0
:10112F007A00EBB5010AECB50206EE30E7027D0D51
:10113F0020050302136A900121C007C006C00512E3
:10114F0016C89000051216C8D005D006D0078E829B
:10115F008F83C007C006C0051216C8D005D006D0B1
:10116F000702136AEE30E70675406102136A754095
:10117F006202136A7540FFAB3B7C00C3EB9EEC9F92
:10118F005030853B7C757D0090000AC007C006C0BB
:10119F0005C004C0031217B9A982AA83D003D004D3
:1011AF00D005D006D007C3EE99EF9A50057D0902FE
:1011BF00136AEEB50306EFB50402800302136A7DCE
:1011CF002002136A7540FFAB3B7C00EEB50306EFC0
:1011DF00B50402800302136A7D0802136A7540FF8B
:1011EF00747F5EFB7C00C374769BE49C50030213F8
:1011FF006AEB240A83F582EB247B83F583E4736A1D
:10120F006AFC6A006A046A6A6A086A0C6A106A6A87
:10121F006A146A186A1C6A6A6A2024282C30346A95
:10122F006A383C4044486A6A6A4C6A506A6A6A6A19
:10123F006A546A586A6A6A6A6A5C6A6A6A6A6A6A35
:10124F006A6A6A6A6A6A6A606A6A6A6A6A6A646AFF
:10125F006A6A6A6A6A6A6A6A6A6A6A6A6A6A6A6ADF
:10126F006A6A6A6A6A6A6A6A6A6A6A6A6A6A6A6ACF
:10127F006A6A6A6A6A681313121313131313131328
:10128F00131313131313131313131313131313131F
:10129F00131313131313131313131313131313130F
:1012AF0013131313131313131313131313131313FF
:1012BF0013131313131313131313131313131313EF
:1012CF0013131313131313131313131313131313DF
:1012DF0013131313131313131313131313131313CF
:1012EF00131313131313131313131313137D1180EA
:1012FF006A7D0180667D1A80627D17805E7D138016
:10130F005A7D1880567D0580527D04804E7D038066
:10131F004A7D1280467D1480427D06803E7D078087
:10132F003A7D1680367D0280327D15802E7D1980A4
:10133F002A7D0A80267D0880227D0D801E7D0980F2
:10134F001A7D0B80167D0F80127D0C800E7D108014
:10135F000A7D1B80067DF080027D0E8E418F428DAF
:02136F008222D8
:1028120000494B3837393F4C2316363B0C0E5728AC
:10282200302E2F2C32313335342A4E50454D464A04
:102832003D20121B1D1E110F141F212B18241A22BA
:10284200153E17191C100D292D26134142403A4FEF
:102852003C01590507600A5A085D560B0904025FDC
:102862005C5203065E5B535551585448434744003B
:1028720020616E726D637364686C666B2C562D47B3
:102882005546425A485029524C534E4354444549A6
:10289200414A4F284D3E593C2F57394B335831321C
:1028A2003035343638372A2423255E2B60405126B2
:1028B2005D7D5C7C7E00005B7B213F22273D3A5F91
:1028C2003B7871767A776A2E796267757069746F70
:0128D20065A0
:10137100C0E0C082C083C0D075D010109902800235
:10138100D207109802801AE5432401F582E4340063
:10139100F583E599F0E54304FF8F43BF800375436F
:1013A10000D0D0D083D082D0E032AC82AD83AEF019
:1013B100FF754300754400D207758E407589008C16
:1013C1007C8D7D8E7E8F7F90C6C075F02DE41217C7
:1013D10054AC82AD83AEF0FF8C03C3E49BF58BE488
:1013E100C39CE49DFD74019EE49F8D8DD28E759802
:1013F10050D29CD299C298D2ACD2AF22E544B54327
:1014010003D38001C3B39208E433F58222E544B5E6
:10141100430280F9E5442401F582E43400F583E0D8
:10142100FFE54404FE8E44BE80037544008F822292
:10143100AF823007FD8F99C2078F8222AD82AE83C2
:10144100AFF0ED4E60248D828E838FF0121F25FC4C
:1014510060188C820DBD00010EC007C006C00512C8
:101461001431D005D006D00780D822C0E0C082C098
:1014710083C0D075D018E59A30E105539AFDD209A1
:10148100E59A30E025539AFEE545FF04F545747F62
:101491005F2481F582E43400F583E59BF015472054
:1014A100920874E025474002D292D0D0D083D082F6
:1014B100D0E032AC82AD83AEF0FF754500754600D9
:1014C100754780759A50538EF7438E048C7C8D7DC1
:1014D1008E7E8F7F90C6C075F02DE4121754AC82BA
:1014E100AD83AEF0FF8C03C3E49BF5D7E4C39CE46A
:1014F1009DFD74019EE49F8DD6438E10439A104347
:101501009A02539AFEC29243AF01D2AF22E546B589
:101511004503D38001C3B3920AE433F58222E54641
:10152100B5450280F9E546FF04F546747F5F2481E5
:10153100F582E43400F583E0FF0547309208E54782
:1015410024BF5002C2928F8222AF823009FD8F9B4D
:10155100C2098F8222C0E0C0F0C082C083C0D075B2
:10156100D018E5AC30E10553ACFDD20BE5AC30E071
:101571002B53ACFEAEAD7F00E5AC30E203431F015F
:10158100E548FD04F548740F5D75F002A42401F5EA
:1015910082740135F0F583EEF0EFA3F0D0D0D08363
:1015A100D082D0F0D0E03275480075490043AC409C
:1015B10053D1FB43D10275D5F075D4FF43D1084314
:1015C100AC8043AC1043AC0253ACFE43AF08D2AF86
:1015D10022100B0280FB3080FD53ACEF53ACF7754A
:1015E100AD00300BFD3080FD43AC1022AE82AF83E5
:1015F100100B0280FB3080FD53ACEFEF30E0054370
:10160100AC08800353ACF78EAD300BFD3080FD4349
:10161100AC1022E549B54803D38001C3B3920CE471
:1016210033F58222E549B5480280F9E549FF04F521
:1016310049740F5F75F002A42401F582740135F03D
:10164100F583E0FEA3E08E82F58322C0E0C0F0C006
:1016510082C083C0D075D018E58430E1055384FD84
:10166100D20DE58430E02B5384FEAE857F00E58406
:1016710030E203431F01E54AFD04F54A740F5D752D
:10168100F002A42421F582740135F0F583EEF0EF28
:10169100A3F0D0D0D083D082D0F0D0E032754A0010
:1016A100754B0043844053D1BF43D12075D3F075AE
:1016B100D2FF43D180438480438410438402538406
:1016C100FE43AF10D2AF22AE82AF83100D0280FB7A
:1016D1003082FD5384EFEF30E005438408800353EB
:1016E10084F78E85300DFD3082FD2082FD3082FD34
:1016F10043841022AE82AF83100D0280FB3082FD45
:101701005384EFEF30E00543840880035384F78E60
:1017110085300DFD3082FD43841022E54BB54A032F
:10172100D38001C3B3920EE433F58222E54BB54A6F
:101731000280F9E54BFF04F54B740F5F75F002A4CD
:101741002421F582740135F0F583E0FEA3E08E8259
:10175100F58322FB7A20E4FCFDFEFFE5822582F57C
:1017610082E58333F583E5F033F5F0EB33FB401786
:10177100DAE98042E5822582F582E58333F583E566
:10178100F033F5F0EB33FBEC33FCED33FDEE33FEE0
:10179100EF33FFEC957CED957DEE957EEF957F40E7
:1017A10013EC957CFCED957DFDEE957EFEEF957F2E
:0817B100FF438201DABEEB22C6
:0600C800E478FFF6D8FD0C
:1000A6007900E94400601B7A009028DE784175A04B
:1000B60001E493F2A308B8000205A0D9F4DAF275B8
:0200C600A0FF99
:1017B900E582857CF0A4C582C0F0857DF0A4D0F0D7
:0D17C90025F0C583857CF0A42583F58322DF
:1000CE007800E84400600A790175A000E4F309D8CD
:1000DE00FC7840E84401600C7902900001E4F0A342
:0400EE00D8FCD9FA67
:1017D600C07B85817B7E008E83120137D07B22857C
:1017E600825D85835E85F05FE4F55AF55BF55C8581
:1017F6004C609017D60218BFC07BE581F57B24FBB1
:10180600FF8F60E4F55AF55BF55CE57B24FBF88613
:101816005D08865E08865F9017D61218BFD07B22B9
:10182600AF82C050C051C0521218338007C04EC09C
:101836004F8F82221581158115810558E4B558020E
:10184600055922AF8274302FFF24C6500B74072F20
:10185600FFE54D60034307208F82021826E582FFCD
:10186600C4540FF582C007121849D007740F5FF5EC
:101876008202184985827CAB53AC54AD55AE56AA4C
:1018860057757E208A07EF2FF57DEE235401457D9F
:10189600FAEB2BFBEC33FCED33FDEE33FEC3EA959E
:1018A6007C4008EAC3957CFA430301D57ED68B5368
:1018B6008C548D558E568A572285824E85834F8548
:1018C6005A50855B51855C52E4F558F559AD5DAECD
:1018D6005EAF5F8D828E838FF0121F25FC74012D03
:1018E600F55DE43EF55E8F5FECFF7003021F06BFF9
:1018F60025028003021EFEE4F561F562F563F564D8
:10190600F565F566F567F568F56AF577F578756B4B
:10191600FF756CFF855D71855E72855F738571826B
:101926008572838573F0121F25F574A385827185F0
:10193600837285715D85725E85735F7425B57408E3
:10194600857482121826808574D025745068E574D3
:1019560024C6406274FFB56B36B56C3385777C85DB
:10196600787D90000A1217B9858275858376AA74E8
:101976007E00EA2575FAEE3576FEEA24D0F577EE96
:1019860034FFF578E57745787093756201808E852A
:101996006B7C856C7D90000A1217B9AE82AB83AA68
:1019A600747D00EA2EFEED3BFBEE24D0F56BEB34A6
:1019B600FFF56C021923742EB5741574FFB56B050B
:1019C600B56C028003021923E4F56BF56C0219234A
:1019D600749F2574500EE574248540085374DF7592
:1019E6004D018003754D007420B57403021A897485
:1019F6002BB57403021A83742DB574028079744270
:101A0600B57403021A8F7443B57403021A9B7444A7
:101A1600B57403021C1F7446B57403021C36744861
:101A2600B574030219237449B57403021C1F744A62
:101A3600B57403021923744CB574028052744FB501
:101A46007403021C277450B57403021BB47453B597
:101A5600740280627454B574030219237455B57404
:101A660003021C2C7458B57403021C31745AB574E5
:101A760003021923021C3B756101021923756301D8
:101A8600021923756401021923756601021923756B
:101A96006701021923E566600AE56014F989608723
:101AA60006800BE56024FEFB8B608B0187068E8229
:101AB600121826021C49E56024FDFE8E608E018701
:101AC6000209870309870619198A538B548E558A8A
:101AD600828B838EF0121F0D85827185837274FF4F
:101AE600B56B09B56C0685716B85726CE5617037EF
:101AF600C3E5719577E5729578502CE577C39571B6
:101B0600F575E5789572F576AA75AE76157574FF56
:101B1600B575021576EA4E60087582201218268081
:101B2600E7857577857678AB6BAE6C855382855481
:101B3600838555F0121F25FA8A6F6034C3E49B74BF
:101B4600808EF063F08095F050261BBBFF011E854A
:101B56006F82C006C003121826D003D006AA53AC63
:101B660054AD550ABA00010C8A538C548D5580BB6E
:101B7600E5617003021C49C3E5719577E5729578B6
:101B86004003021C49E577C39571F575E5789572B2
:101B9600F576AA75AE76157574FFB575021576EAF3
:101BA6004E7003021C4375822012182680E4E560FD
:101BB60024FDFE8E608E01870209870309870619B8
:101BC600198A538B548E55AE55BE800040047B4314
:101BD6008014BE600040047B50800BBE4000400471
:101BE6007B4980027B588B82C00312182675823A85
:101BF600121826758230121826758278121826D089
:101C060003BB4902800BBB50028006855482121822
:101C160063855382121863802A756501756A0A8086
:101C260022756A08801D756A0A8018756A10801305
:101C3600756801800E857482121826800685757770
:101C4600857678E5686060E56024FCFE8E608E012E
:101C5600877709877809877909877A19191985771E
:101C660053857854857955857A567553D375542896
:101C76007555808553778554788555797401257710
:101C8600FAE43578FBAE798A538B548E5585778284
:101C96008578838579F0121F25FEFB70030218D321
:101CA6008B8212182680CCE56A70030218D3E5668B
:101CB600602BE56014F9896087068E027B007D0043
:101CC6007E008A538B548D558E56E5657064AA53F3
:101CD600FBFDFE8A538B548D558E568055E5676005
:101CE60021E56024FCFE8E608E01870209870309C8
:101CF60087050987061919198A538B548D558E56EF
:101D06008030E56024FEFE8E608E0187030987061B
:101D160019EEFA3395E0FDFE8B538A548D558E5697
:101D2600E565700EAA53AB54FDFE8A538B548D5550
:101D36008E56E5656023E55630E71BC3E49553FBF5
:101D4600E49554FCE49555FDE49556FE8B538C546E
:101D56008D558E56800375650075690179857D0000
:101D66007E00755700856A82C006C005C00112183C
:101D76007AD001D005D006E5697014E557C454F051
:101D8600FCE557C4540F4204E7FB4CF7198002A741
:101D9600570DBD00010EE569B40100E433F569E5B0
:101DA6005345544555455670B989708D6D8E6EE50F
:101DB6007745787005757701F578E562702DE561F0
:101DC6007029AA77AB78AC6D0C7E00C3EC9AEE9BBB
:101DD6005015758220C003C002121826D002D00307
:101DE6001ABAFF011B80DF8A778B78E5656011756B
:101DF600822D121826157774FFB577021578802E76
:101E0600E56D456E6028E563601175822B12182614
:101E1600157774FFB5770215788013E564600F7542
:101E26008220121826157774FFB577021578E561BA
:101E36007033AD77AE788D038E041DBDFF011EC3D2
:101E4600E56D9BE56E9C503EE56260067B307C004E
:101E560080047B207C008B82C006C005121826D029
:101E660005D00680D1C3E56D9577E56E9578500F60
:101E7600E577C3956DF577E578956EF578800BE493
:101E8600F577F57880048D778E78A970AD6DAE6E96
:101E96008D028E041DBDFF011EEA4C6030E569B45B
:101EA6000100E433F569700A09E7C4540FFC8C5746
:101EB60080078704740F5CF557855782C006C005F6
:101EC600C001121849D001D005D00680C3E5617063
:101ED600030218D3AD77AE788D038E041DBDFF01C6
:101EE6001EEB4C70030218D3758220C006C0051283
:101EF6001826D005D00680E08F821218260218D345
:071F060085588285598322F2
:0B28D3003C4E4F20464C4F41543E004D
:101F0D00AA82AB83121F256003A380F8C3E5829AD2
:081F1D00F582E5839BF58322A8
:0D009900758185121F41E58260030200960B
:101F250020F71430F6148883A88220F507E6A883E5
:101F350075830022E280F7E49322E0227582002275
:00000001FF
